{
  "contractName": "JagerGitClient",
  "abi": [
    {
      "constant": true,
      "inputs": [
        {
          "name": "",
          "type": "address"
        },
        {
          "name": "",
          "type": "uint256"
        }
      ],
      "name": "meister_bounty_ids",
      "outputs": [
        {
          "name": "",
          "type": "uint256"
        }
      ],
      "payable": false,
      "stateMutability": "view",
      "type": "function"
    },
    {
      "constant": true,
      "inputs": [],
      "name": "ERC20Interface",
      "outputs": [
        {
          "name": "",
          "type": "address"
        }
      ],
      "payable": false,
      "stateMutability": "view",
      "type": "function"
    },
    {
      "constant": true,
      "inputs": [
        {
          "name": "",
          "type": "uint256"
        }
      ],
      "name": "allMeisters",
      "outputs": [
        {
          "name": "",
          "type": "address"
        }
      ],
      "payable": false,
      "stateMutability": "view",
      "type": "function"
    },
    {
      "constant": false,
      "inputs": [],
      "name": "renounceOwnership",
      "outputs": [],
      "payable": false,
      "stateMutability": "nonpayable",
      "type": "function"
    },
    {
      "constant": true,
      "inputs": [],
      "name": "owner",
      "outputs": [
        {
          "name": "",
          "type": "address"
        }
      ],
      "payable": false,
      "stateMutability": "view",
      "type": "function"
    },
    {
      "constant": true,
      "inputs": [
        {
          "name": "",
          "type": "bytes32"
        }
      ],
      "name": "tokens",
      "outputs": [
        {
          "name": "",
          "type": "address"
        }
      ],
      "payable": false,
      "stateMutability": "view",
      "type": "function"
    },
    {
      "constant": true,
      "inputs": [
        {
          "name": "",
          "type": "uint256"
        }
      ],
      "name": "transactions",
      "outputs": [
        {
          "name": "contract_",
          "type": "address"
        },
        {
          "name": "to_",
          "type": "address"
        },
        {
          "name": "amount_",
          "type": "uint256"
        },
        {
          "name": "failed_",
          "type": "bool"
        }
      ],
      "payable": false,
      "stateMutability": "view",
      "type": "function"
    },
    {
      "constant": true,
      "inputs": [
        {
          "name": "",
          "type": "address"
        },
        {
          "name": "",
          "type": "uint256"
        }
      ],
      "name": "transactionIndexesToSender",
      "outputs": [
        {
          "name": "",
          "type": "uint256"
        }
      ],
      "payable": false,
      "stateMutability": "view",
      "type": "function"
    },
    {
      "constant": true,
      "inputs": [
        {
          "name": "",
          "type": "uint256"
        }
      ],
      "name": "bounties",
      "outputs": [
        {
          "name": "id",
          "type": "uint256"
        },
        {
          "name": "repo_link",
          "type": "string"
        },
        {
          "name": "tag",
          "type": "string"
        },
        {
          "name": "reward_amount",
          "type": "uint256"
        },
        {
          "name": "active",
          "type": "bool"
        },
        {
          "name": "title",
          "type": "string"
        },
        {
          "name": "description",
          "type": "string"
        }
      ],
      "payable": false,
      "stateMutability": "view",
      "type": "function"
    },
    {
      "constant": true,
      "inputs": [
        {
          "name": "",
          "type": "uint256"
        }
      ],
      "name": "bountyIDs",
      "outputs": [
        {
          "name": "",
          "type": "uint256"
        }
      ],
      "payable": false,
      "stateMutability": "view",
      "type": "function"
    },
    {
      "constant": false,
      "inputs": [
        {
          "name": "_newOwner",
          "type": "address"
        }
      ],
      "name": "transferOwnership",
      "outputs": [],
      "payable": false,
      "stateMutability": "nonpayable",
      "type": "function"
    },
    {
      "inputs": [],
      "payable": false,
      "stateMutability": "nonpayable",
      "type": "constructor"
    },
    {
      "anonymous": false,
      "inputs": [
        {
          "indexed": true,
          "name": "from_",
          "type": "address"
        },
        {
          "indexed": true,
          "name": "to_",
          "type": "address"
        },
        {
          "indexed": false,
          "name": "amount_",
          "type": "uint256"
        }
      ],
      "name": "TransferSuccessful",
      "type": "event"
    },
    {
      "anonymous": false,
      "inputs": [
        {
          "indexed": true,
          "name": "from_",
          "type": "address"
        },
        {
          "indexed": true,
          "name": "to_",
          "type": "address"
        },
        {
          "indexed": false,
          "name": "amount_",
          "type": "uint256"
        }
      ],
      "name": "TransferFailed",
      "type": "event"
    },
    {
      "anonymous": false,
      "inputs": [
        {
          "indexed": false,
          "name": "_bounty_id",
          "type": "uint256"
        },
        {
          "indexed": false,
          "name": "_owner",
          "type": "address"
        },
        {
          "indexed": false,
          "name": "_reward",
          "type": "uint256"
        }
      ],
      "name": "NewBounty",
      "type": "event"
    },
    {
      "anonymous": false,
      "inputs": [
        {
          "indexed": true,
          "name": "previousOwner",
          "type": "address"
        }
      ],
      "name": "OwnershipRenounced",
      "type": "event"
    },
    {
      "anonymous": false,
      "inputs": [
        {
          "indexed": true,
          "name": "previousOwner",
          "type": "address"
        },
        {
          "indexed": true,
          "name": "newOwner",
          "type": "address"
        }
      ],
      "name": "OwnershipTransferred",
      "type": "event"
    },
    {
      "anonymous": false,
      "inputs": [
        {
          "indexed": true,
          "name": "id",
          "type": "bytes32"
        }
      ],
      "name": "ChainlinkRequested",
      "type": "event"
    },
    {
      "anonymous": false,
      "inputs": [
        {
          "indexed": true,
          "name": "id",
          "type": "bytes32"
        }
      ],
      "name": "ChainlinkFulfilled",
      "type": "event"
    },
    {
      "anonymous": false,
      "inputs": [
        {
          "indexed": true,
          "name": "id",
          "type": "bytes32"
        }
      ],
      "name": "ChainlinkCancelled",
      "type": "event"
    },
    {
      "constant": false,
      "inputs": [
        {
          "name": "symbol_",
          "type": "bytes32"
        },
        {
          "name": "address_",
          "type": "address"
        }
      ],
      "name": "addNewToken",
      "outputs": [
        {
          "name": "",
          "type": "bool"
        }
      ],
      "payable": false,
      "stateMutability": "nonpayable",
      "type": "function"
    },
    {
      "constant": false,
      "inputs": [
        {
          "name": "symbol_",
          "type": "bytes32"
        }
      ],
      "name": "removeToken",
      "outputs": [
        {
          "name": "",
          "type": "bool"
        }
      ],
      "payable": false,
      "stateMutability": "nonpayable",
      "type": "function"
    },
    {
      "constant": false,
      "inputs": [
        {
          "name": "symbol_",
          "type": "bytes32"
        },
        {
          "name": "to_",
          "type": "address"
        },
        {
          "name": "amount_",
          "type": "uint256"
        }
      ],
      "name": "transferTokens",
      "outputs": [],
      "payable": false,
      "stateMutability": "nonpayable",
      "type": "function"
    },
    {
      "constant": false,
      "inputs": [
        {
          "name": "beneficiary",
          "type": "address"
        }
      ],
      "name": "withdraw",
      "outputs": [],
      "payable": true,
      "stateMutability": "payable",
      "type": "function"
    },
    {
      "constant": false,
      "inputs": [
        {
          "name": "symbol_",
          "type": "bytes32"
        },
        {
          "name": "to_",
          "type": "address"
        },
        {
          "name": "amount_",
          "type": "uint256"
        }
      ],
      "name": "cashReward",
      "outputs": [],
      "payable": false,
      "stateMutability": "nonpayable",
      "type": "function"
    },
    {
      "constant": false,
      "inputs": [
        {
          "name": "repoLink",
          "type": "string"
        },
        {
          "name": "reward",
          "type": "uint256"
        },
        {
          "name": "PR_tag",
          "type": "string"
        },
        {
          "name": "title",
          "type": "string"
        },
        {
          "name": "description",
          "type": "string"
        }
      ],
      "name": "CreateBounty",
      "outputs": [
        {
          "name": "bountyID",
          "type": "uint256"
        }
      ],
      "payable": false,
      "stateMutability": "nonpayable",
      "type": "function"
    },
    {
      "constant": true,
      "inputs": [
        {
          "name": "meister",
          "type": "address"
        }
      ],
      "name": "GetMeisterBounties",
      "outputs": [
        {
          "name": "bountyIds",
          "type": "uint256[]"
        }
      ],
      "payable": false,
      "stateMutability": "view",
      "type": "function"
    },
    {
      "constant": true,
      "inputs": [
        {
          "name": "repoLink",
          "type": "string"
        }
      ],
      "name": "GetRepoBounties",
      "outputs": [
        {
          "name": "bountyIds",
          "type": "uint256[]"
        }
      ],
      "payable": false,
      "stateMutability": "view",
      "type": "function"
    },
    {
      "constant": true,
      "inputs": [
        {
          "name": "bountyId",
          "type": "uint256"
        }
      ],
      "name": "GetBountyInfo",
      "outputs": [
        {
          "name": "id",
          "type": "uint256"
        },
        {
          "name": "repoLink",
          "type": "string"
        },
        {
          "name": "tag",
          "type": "string"
        },
        {
          "name": "reward",
          "type": "uint256"
        },
        {
          "name": "active",
          "type": "bool"
        },
        {
          "name": "title",
          "type": "string"
        },
        {
          "name": "description",
          "type": "string"
        }
      ],
      "payable": false,
      "stateMutability": "view",
      "type": "function"
    },
    {
      "constant": true,
      "inputs": [],
      "name": "getChainlinkToken",
      "outputs": [
        {
          "name": "",
          "type": "address"
        }
      ],
      "payable": false,
      "stateMutability": "view",
      "type": "function"
    },
    {
      "constant": false,
      "inputs": [],
      "name": "withdrawLink",
      "outputs": [],
      "payable": false,
      "stateMutability": "nonpayable",
      "type": "function"
    },
    {
      "constant": false,
      "inputs": [
        {
          "name": "_requestId",
          "type": "bytes32"
        },
        {
          "name": "_payment",
          "type": "uint256"
        },
        {
          "name": "_callbackFunctionId",
          "type": "bytes4"
        },
        {
          "name": "_expiration",
          "type": "uint256"
        }
      ],
      "name": "cancelRequest",
      "outputs": [],
      "payable": false,
      "stateMutability": "nonpayable",
      "type": "function"
    }
  ],
  "bytecode": "0x608060405260016004553480156200001657600080fd5b50600033600660006101000a81548173ffffffffffffffffffffffffffffffffffffffff021916908373ffffffffffffffffffffffffffffffffffffffff16021790555062000073620000fb640100000000026401000000009004565b620000c26040805190810160405280600381526020017f4441490000000000000000000000000000000000000000000000000000000000815250620001cc640100000000026401000000009004565b9050620000f381734dc966317b2c55105fad4835f651022acd632120620001f9640100000000026401000000009004565b505062000300565b620001ca73c89bd4e1632d3a43cb03aaad5262cbe4038bc57173ffffffffffffffffffffffffffffffffffffffff166338cc48316040518163ffffffff167c0100000000000000000000000000000000000000000000000000000000028152600401602060405180830381600087803b1580156200017857600080fd5b505af11580156200018d573d6000803e3d6000fd5b505050506040513d6020811015620001a457600080fd5b8101908080519060200190929190505050620002bc640100000000026401000000009004565b565b60006060829050600081511415620001eb5760006001029150620001f3565b602083015191505b50919050565b6000600660009054906101000a900473ffffffffffffffffffffffffffffffffffffffff1673ffffffffffffffffffffffffffffffffffffffff163373ffffffffffffffffffffffffffffffffffffffff161415156200025857600080fd5b8160096000856000191660001916815260200190815260200160002060006101000a81548173ffffffffffffffffffffffffffffffffffffffff021916908373ffffffffffffffffffffffffffffffffffffffff1602179055506001905092915050565b80600260006101000a81548173ffffffffffffffffffffffffffffffffffffffff021916908373ffffffffffffffffffffffffffffffffffffffff16021790555050565b61354280620003106000396000f300608060405260043610610133576000357c0100000000000000000000000000000000000000000000000000000000900463ffffffff1680630a4767d014610138578063165d35e1146101995780631bbc4b83146101f05780631f9988c914610247578063224e7462146102a257806351cff8d9146102eb57806364bb3e7314610321578063715018a61461038e5780638830d52b146103a55780638da5cb5b146105a85780638dc654a2146105ff578063904194a3146106165780639ace38c214610687578063b082443b14610739578063b7d5f9dc146107a2578063c4796437146107fd578063dc2f87441461085e578063e43e8d9914610a61578063ec2bd98114610bba578063ec65d0f814610c52578063ecb0fbdc14610cc0578063f1c0099a14610d01578063f2fde38b14610dbf575b600080fd5b34801561014457600080fd5b50610183600480360381019080803573ffffffffffffffffffffffffffffffffffffffff16906020019092919080359060200190929190505050610e02565b6040518082815260200191505060405180910390f35b3480156101a557600080fd5b506101ae610e32565b604051808273ffffffffffffffffffffffffffffffffffffffff1673ffffffffffffffffffffffffffffffffffffffff16815260200191505060405180910390f35b3480156101fc57600080fd5b50610205610e41565b604051808273ffffffffffffffffffffffffffffffffffffffff1673ffffffffffffffffffffffffffffffffffffffff16815260200191505060405180910390f35b34801561025357600080fd5b506102a06004803603810190808035600019169060200190929190803573ffffffffffffffffffffffffffffffffffffffff16906020019092919080359060200190929190505050610e67565b005b3480156102ae57600080fd5b506102d1600480360381019080803560001916906020019092919050505061147e565b604051808215151515815260200191505060405180910390f35b61031f600480360381019080803573ffffffffffffffffffffffffffffffffffffffff169060200190929190505050611584565b005b34801561032d57600080fd5b5061034c60048036038101908080359060200190929190505050611641565b604051808273ffffffffffffffffffffffffffffffffffffffff1673ffffffffffffffffffffffffffffffffffffffff16815260200191505060405180910390f35b34801561039a57600080fd5b506103a361167f565b005b3480156103b157600080fd5b506103d060048036038101908080359060200190929190505050611784565b60405180888152602001806020018060200187815260200186151515158152602001806020018060200185810385528b818151815260200191508051906020019080838360005b83811015610432578082015181840152602081019050610417565b50505050905090810190601f16801561045f5780820380516001836020036101000a031916815260200191505b5085810384528a818151815260200191508051906020019080838360005b8381101561049857808201518184015260208101905061047d565b50505050905090810190601f1680156104c55780820380516001836020036101000a031916815260200191505b50858103835287818151815260200191508051906020019080838360005b838110156104fe5780820151818401526020810190506104e3565b50505050905090810190601f16801561052b5780820380516001836020036101000a031916815260200191505b50858103825286818151815260200191508051906020019080838360005b83811015610564578082015181840152602081019050610549565b50505050905090810190601f1680156105915780820380516001836020036101000a031916815260200191505b509b50505050505050505050505060405180910390f35b3480156105b457600080fd5b506105bd611ab8565b604051808273ffffffffffffffffffffffffffffffffffffffff1673ffffffffffffffffffffffffffffffffffffffff16815260200191505060405180910390f35b34801561060b57600080fd5b50610614611ade565b005b34801561062257600080fd5b506106456004803603810190808035600019169060200190929190505050611d70565b604051808273ffffffffffffffffffffffffffffffffffffffff1673ffffffffffffffffffffffffffffffffffffffff16815260200191505060405180910390f35b34801561069357600080fd5b506106b260048036038101908080359060200190929190505050611da3565b604051808573ffffffffffffffffffffffffffffffffffffffff1673ffffffffffffffffffffffffffffffffffffffff1681526020018473ffffffffffffffffffffffffffffffffffffffff1673ffffffffffffffffffffffffffffffffffffffff1681526020018381526020018215151515815260200194505050505060405180910390f35b34801561074557600080fd5b506107886004803603810190808035600019169060200190929190803573ffffffffffffffffffffffffffffffffffffffff169060200190929190505050611e2f565b604051808215151515815260200191505060405180910390f35b3480156107ae57600080fd5b506107fb6004803603810190808035600019169060200190929190803573ffffffffffffffffffffffffffffffffffffffff16906020019092919080359060200190929190505050611ef1565b005b34801561080957600080fd5b50610848600480360381019080803573ffffffffffffffffffffffffffffffffffffffff16906020019092919080359060200190929190505050612463565b6040518082815260200191505060405180910390f35b34801561086a57600080fd5b5061088960048036038101908080359060200190929190505050612493565b60405180888152602001806020018060200187815260200186151515158152602001806020018060200185810385528b818151815260200191508051906020019080838360005b838110156108eb5780820151818401526020810190506108d0565b50505050905090810190601f1680156109185780820380516001836020036101000a031916815260200191505b5085810384528a818151815260200191508051906020019080838360005b83811015610951578082015181840152602081019050610936565b50505050905090810190601f16801561097e5780820380516001836020036101000a031916815260200191505b50858103835287818151815260200191508051906020019080838360005b838110156109b757808201518184015260208101905061099c565b50505050905090810190601f1680156109e45780820380516001836020036101000a031916815260200191505b50858103825286818151815260200191508051906020019080838360005b83811015610a1d578082015181840152602081019050610a02565b50505050905090810190601f168015610a4a5780820380516001836020036101000a031916815260200191505b509b50505050505050505050505060405180910390f35b348015610a6d57600080fd5b50610ba4600480360381019080803590602001908201803590602001908080601f016020809104026020016040519081016040528093929190818152602001838380828437820191505050505050919291929080359060200190929190803590602001908201803590602001908080601f0160208091040260200160405190810160405280939291908181526020018383808284378201915050505050509192919290803590602001908201803590602001908080601f0160208091040260200160405190810160405280939291908181526020018383808284378201915050505050509192919290803590602001908201803590602001908080601f0160208091040260200160405190810160405280939291908181526020018383808284378201915050505050509192919290505050612742565b6040518082815260200191505060405180910390f35b348015610bc657600080fd5b50610bfb600480360381019080803573ffffffffffffffffffffffffffffffffffffffff169060200190929190505050612bfe565b6040518080602001828103825283818151815260200191508051906020019060200280838360005b83811015610c3e578082015181840152602081019050610c23565b505050509050019250505060405180910390f35b348015610c5e57600080fd5b50610cbe60048036038101908080356000191690602001909291908035906020019092919080357bffffffffffffffffffffffffffffffffffffffffffffffffffffffff1916906020019092919080359060200190929190505050612c95565b005b348015610ccc57600080fd5b50610ceb60048036038101908080359060200190929190505050612d03565b6040518082815260200191505060405180910390f35b348015610d0d57600080fd5b50610d68600480360381019080803590602001908201803590602001908080601f0160208091040260200160405190810160405280939291908181526020018383808284378201915050505050509192919290505050612d26565b6040518080602001828103825283818151815260200191508051906020019060200280838360005b83811015610dab578082015181840152602081019050610d90565b505050509050019250505060405180910390f35b348015610dcb57600080fd5b50610e00600480360381019080803573ffffffffffffffffffffffffffffffffffffffff169060200190929190505050612de9565b005b600f60205281600052604060002081815481101515610e1d57fe5b90600052602060002001600091509150505481565b6000610e3c612e51565b905090565b600a60009054906101000a900473ffffffffffffffffffffffffffffffffffffffff1681565b60008060008060096000886000191660001916815260200190815260200160002060009054906101000a900473ffffffffffffffffffffffffffffffffffffffff1673ffffffffffffffffffffffffffffffffffffffff1614151515610ecc57600080fd5b600084111515610edb57600080fd5b60096000876000191660001916815260200190815260200160002060009054906101000a900473ffffffffffffffffffffffffffffffffffffffff16925033915082600a60006101000a81548173ffffffffffffffffffffffffffffffffffffffff021916908373ffffffffffffffffffffffffffffffffffffffff160217905550600b6080604051908101604052808573ffffffffffffffffffffffffffffffffffffffff1681526020018773ffffffffffffffffffffffffffffffffffffffff168152602001868152602001600115158152509080600181540180825580915050906001820390600052602060002090600402016000909192909190915060008201518160000160006101000a81548173ffffffffffffffffffffffffffffffffffffffff021916908373ffffffffffffffffffffffffffffffffffffffff16021790555060208201518160010160006101000a81548173ffffffffffffffffffffffffffffffffffffffff021916908373ffffffffffffffffffffffffffffffffffffffff1602179055506040820151816002015560608201518160030160006101000a81548160ff02191690831515021790555050509050600760008373ffffffffffffffffffffffffffffffffffffffff1673ffffffffffffffffffffffffffffffffffffffff168152602001908152602001600020600182039080600181540180825580915050906001820390600052602060002001600090919290919091505550600a60009054906101000a900473ffffffffffffffffffffffffffffffffffffffff1673ffffffffffffffffffffffffffffffffffffffff1663dd62ed3e83306040518363ffffffff167c0100000000000000000000000000000000000000000000000000000000028152600401808373ffffffffffffffffffffffffffffffffffffffff1673ffffffffffffffffffffffffffffffffffffffff1681526020018273ffffffffffffffffffffffffffffffffffffffff1673ffffffffffffffffffffffffffffffffffffffff16815260200192505050602060405180830381600087803b1580156111f457600080fd5b505af1158015611208573d6000803e3d6000fd5b505050506040513d602081101561121e57600080fd5b81019080805190602001909291905050508411156112a0578473ffffffffffffffffffffffffffffffffffffffff168273ffffffffffffffffffffffffffffffffffffffff167fbf182be802245e8ed88e4b8d3e4344c0863dd2a70334f089fd07265389306fcf866040518082815260200191505060405180910390a3600080fd5b600a60009054906101000a900473ffffffffffffffffffffffffffffffffffffffff1673ffffffffffffffffffffffffffffffffffffffff166323b872dd8387876040518463ffffffff167c0100000000000000000000000000000000000000000000000000000000028152600401808473ffffffffffffffffffffffffffffffffffffffff1673ffffffffffffffffffffffffffffffffffffffff1681526020018373ffffffffffffffffffffffffffffffffffffffff1673ffffffffffffffffffffffffffffffffffffffff1681526020018281526020019350505050602060405180830381600087803b15801561139957600080fd5b505af11580156113ad573d6000803e3d6000fd5b505050506040513d60208110156113c357600080fd5b8101908080519060200190929190505050506000600b600183038154811015156113e957fe5b906000526020600020906004020160030160006101000a81548160ff0219169083151502179055508473ffffffffffffffffffffffffffffffffffffffff168273ffffffffffffffffffffffffffffffffffffffff167fd6d3eb25a413c05d8107fc49deb2789bef7f612582b2482804c0b0423b6638ee866040518082815260200191505060405180910390a3505050505050565b6000600660009054906101000a900473ffffffffffffffffffffffffffffffffffffffff1673ffffffffffffffffffffffffffffffffffffffff163373ffffffffffffffffffffffffffffffffffffffff161415156114dc57600080fd5b600060096000846000191660001916815260200190815260200160002060009054906101000a900473ffffffffffffffffffffffffffffffffffffffff1673ffffffffffffffffffffffffffffffffffffffff161415151561153d57600080fd5b60096000836000191660001916815260200190815260200160002060006101000a81549073ffffffffffffffffffffffffffffffffffffffff021916905560019050919050565b600660009054906101000a900473ffffffffffffffffffffffffffffffffffffffff1673ffffffffffffffffffffffffffffffffffffffff163373ffffffffffffffffffffffffffffffffffffffff161415156115e057600080fd5b8073ffffffffffffffffffffffffffffffffffffffff166108fc3073ffffffffffffffffffffffffffffffffffffffff16319081150290604051600060405180830381858888f1935050505015801561163d573d6000803e3d6000fd5b5050565b600e8181548110151561165057fe5b906000526020600020016000915054906101000a900473ffffffffffffffffffffffffffffffffffffffff1681565b600660009054906101000a900473ffffffffffffffffffffffffffffffffffffffff1673ffffffffffffffffffffffffffffffffffffffff163373ffffffffffffffffffffffffffffffffffffffff161415156116db57600080fd5b600660009054906101000a900473ffffffffffffffffffffffffffffffffffffffff1673ffffffffffffffffffffffffffffffffffffffff167ff8df31144d9c2f0f6b59d69b8b98abd5459d07f2742c4df920b25aae33c6482060405160405180910390a26000600660006101000a81548173ffffffffffffffffffffffffffffffffffffffff021916908373ffffffffffffffffffffffffffffffffffffffff160217905550565b6000606080600080606080611797613431565b601160008a815260200190815260200160002060e0604051908101604052908160008201548152602001600182018054600181600116156101000203166002900480601f0160208091040260200160405190810160405280929190818152602001828054600181600116156101000203166002900480156118595780601f1061182e57610100808354040283529160200191611859565b820191906000526020600020905b81548152906001019060200180831161183c57829003601f168201915b50505050508152602001600282018054600181600116156101000203166002900480601f0160208091040260200160405190810160405280929190818152602001828054600181600116156101000203166002900480156118fb5780601f106118d0576101008083540402835291602001916118fb565b820191906000526020600020905b8154815290600101906020018083116118de57829003601f168201915b50505050508152602001600382015481526020016004820160009054906101000a900460ff16151515158152602001600582018054600181600116156101000203166002900480601f0160208091040260200160405190810160405280929190818152602001828054600181600116156101000203166002900480156119c25780601f10611997576101008083540402835291602001916119c2565b820191906000526020600020905b8154815290600101906020018083116119a557829003601f168201915b50505050508152602001600682018054600181600116156101000203166002900480601f016020809104026020016040519081016040528092919081815260200182805460018160011615610100020316600290048015611a645780601f10611a3957610100808354040283529160200191611a64565b820191906000526020600020905b815481529060010190602001808311611a4757829003601f168201915b5050505050815250509050806000015181602001518260400151836060015184608001518560a001518660c00151859550849450819150809050975097509750975097509750975050919395979092949650565b600860009054906101000a900473ffffffffffffffffffffffffffffffffffffffff1681565b6000600660009054906101000a900473ffffffffffffffffffffffffffffffffffffffff1673ffffffffffffffffffffffffffffffffffffffff163373ffffffffffffffffffffffffffffffffffffffff16141515611b3c57600080fd5b611b44612e51565b90508073ffffffffffffffffffffffffffffffffffffffff1663a9059cbb338373ffffffffffffffffffffffffffffffffffffffff166370a08231306040518263ffffffff167c0100000000000000000000000000000000000000000000000000000000028152600401808273ffffffffffffffffffffffffffffffffffffffff1673ffffffffffffffffffffffffffffffffffffffff168152602001915050602060405180830381600087803b158015611bfe57600080fd5b505af1158015611c12573d6000803e3d6000fd5b505050506040513d6020811015611c2857600080fd5b81019080805190602001909291905050506040518363ffffffff167c0100000000000000000000000000000000000000000000000000000000028152600401808373ffffffffffffffffffffffffffffffffffffffff1673ffffffffffffffffffffffffffffffffffffffff16815260200182815260200192505050602060405180830381600087803b158015611cbe57600080fd5b505af1158015611cd2573d6000803e3d6000fd5b505050506040513d6020811015611ce857600080fd5b81019080805190602001909291905050501515611d6d576040517f08c379a00000000000000000000000000000000000000000000000000000000081526004018080602001828103825260128152602001807f556e61626c6520746f207472616e73666572000000000000000000000000000081525060200191505060405180910390fd5b50565b60096020528060005260406000206000915054906101000a900473ffffffffffffffffffffffffffffffffffffffff1681565b600b81815481101515611db257fe5b90600052602060002090600402016000915090508060000160009054906101000a900473ffffffffffffffffffffffffffffffffffffffff16908060010160009054906101000a900473ffffffffffffffffffffffffffffffffffffffff16908060020154908060030160009054906101000a900460ff16905084565b6000600660009054906101000a900473ffffffffffffffffffffffffffffffffffffffff1673ffffffffffffffffffffffffffffffffffffffff163373ffffffffffffffffffffffffffffffffffffffff16141515611e8d57600080fd5b8160096000856000191660001916815260200190815260200160002060006101000a81548173ffffffffffffffffffffffffffffffffffffffff021916908373ffffffffffffffffffffffffffffffffffffffff1602179055506001905092915050565b600080600060096000876000191660001916815260200190815260200160002060009054906101000a900473ffffffffffffffffffffffffffffffffffffffff1673ffffffffffffffffffffffffffffffffffffffff1614151515611f5557600080fd5b600083111515611f6457600080fd5b60096000866000191660001916815260200190815260200160002060009054906101000a900473ffffffffffffffffffffffffffffffffffffffff16915081600a60006101000a81548173ffffffffffffffffffffffffffffffffffffffff021916908373ffffffffffffffffffffffffffffffffffffffff160217905550600b6080604051908101604052808473ffffffffffffffffffffffffffffffffffffffff1681526020018673ffffffffffffffffffffffffffffffffffffffff168152602001858152602001600115158152509080600181540180825580915050906001820390600052602060002090600402016000909192909190915060008201518160000160006101000a81548173ffffffffffffffffffffffffffffffffffffffff021916908373ffffffffffffffffffffffffffffffffffffffff16021790555060208201518160010160006101000a81548173ffffffffffffffffffffffffffffffffffffffff021916908373ffffffffffffffffffffffffffffffffffffffff1602179055506040820151816002015560608201518160030160006101000a81548160ff02191690831515021790555050509050600a60009054906101000a900473ffffffffffffffffffffffffffffffffffffffff1673ffffffffffffffffffffffffffffffffffffffff166370a08231306040518263ffffffff167c0100000000000000000000000000000000000000000000000000000000028152600401808273ffffffffffffffffffffffffffffffffffffffff1673ffffffffffffffffffffffffffffffffffffffff168152602001915050602060405180830381600087803b1580156121da57600080fd5b505af11580156121ee573d6000803e3d6000fd5b505050506040513d602081101561220457600080fd5b8101908080519060200190929190505050831115612286578373ffffffffffffffffffffffffffffffffffffffff163073ffffffffffffffffffffffffffffffffffffffff167fbf182be802245e8ed88e4b8d3e4344c0863dd2a70334f089fd07265389306fcf856040518082815260200191505060405180910390a3600080fd5b600a60009054906101000a900473ffffffffffffffffffffffffffffffffffffffff1673ffffffffffffffffffffffffffffffffffffffff166323b872dd3086866040518463ffffffff167c0100000000000000000000000000000000000000000000000000000000028152600401808473ffffffffffffffffffffffffffffffffffffffff1673ffffffffffffffffffffffffffffffffffffffff1681526020018373ffffffffffffffffffffffffffffffffffffffff1673ffffffffffffffffffffffffffffffffffffffff1681526020018281526020019350505050602060405180830381600087803b15801561237f57600080fd5b505af1158015612393573d6000803e3d6000fd5b505050506040513d60208110156123a957600080fd5b8101908080519060200190929190505050506000600b600183038154811015156123cf57fe5b906000526020600020906004020160030160006101000a81548160ff0219169083151502179055508373ffffffffffffffffffffffffffffffffffffffff163073ffffffffffffffffffffffffffffffffffffffff167fd6d3eb25a413c05d8107fc49deb2789bef7f612582b2482804c0b0423b6638ee856040518082815260200191505060405180910390a35050505050565b60076020528160005260406000208181548110151561247e57fe5b90600052602060002001600091509150505481565b6011602052806000526040600020600091509050806000015490806001018054600181600116156101000203166002900480601f0160208091040260200160405190810160405280929190818152602001828054600181600116156101000203166002900480156125455780601f1061251a57610100808354040283529160200191612545565b820191906000526020600020905b81548152906001019060200180831161252857829003601f168201915b505050505090806002018054600181600116156101000203166002900480601f0160208091040260200160405190810160405280929190818152602001828054600181600116156101000203166002900480156125e35780601f106125b8576101008083540402835291602001916125e3565b820191906000526020600020905b8154815290600101906020018083116125c657829003601f168201915b5050505050908060030154908060040160009054906101000a900460ff1690806005018054600181600116156101000203166002900480601f01602080910402602001604051908101604052809291908181526020018280546001816001161561010002031660029004801561269a5780601f1061266f5761010080835404028352916020019161269a565b820191906000526020600020905b81548152906001019060200180831161267d57829003601f168201915b505050505090806006018054600181600116156101000203166002900480601f0160208091040260200160405190810160405280929190818152602001828054600181600116156101000203166002900480156127385780601f1061270d57610100808354040283529160200191612738565b820191906000526020600020905b81548152906001019060200180831161271b57829003601f168201915b5050505050905087565b600061274c613431565b600080600060e060405190810160405280600d8054905081526020018b81526020018981526020018a815260200160011515815260200188815260200187815250935060108a6040518082805190602001908083835b6020831015156127c757805182526020820191506020810190506020830392506127a2565b6001836020036101000a038019825116818451168082178552505050505050905001915050908152602001604051809103902080549050925060008314151561299d57600091505b8282101561299c5760108a6040518082805190602001908083835b60208310151561284f578051825260208201915060208101905060208303925061282a565b6001836020036101000a03801982511681845116808217855250505050505090500191505090815260200160405180910390208281548110151561288f57fe5b906000526020600020015490506000612956601160008481526020019081526020016000206002018054600181600116156101000203166002900480601f01602080910402602001604051908101604052809291908181526020018280546001816001161561010002031660029004801561294b5780601f106129205761010080835404028352916020019161294b565b820191906000526020600020905b81548152906001019060200180831161292e57829003601f168201915b50505050508a612e7b565b14158061298457506011600082815260200190815260200160002060040160009054906101000a900460ff16155b151561298f57600080fd5b818060010192505061280f565b5b60108a6040518082805190602001908083835b6020831015156129d557805182526020820191506020810190506020830392506129b0565b6001836020036101000a0380198251168184511680821785525050505050509050019150509081526020016040518091039020846000015190806001815401808255809150509060018203906000526020600020016000909192909190915055506000600f60003373ffffffffffffffffffffffffffffffffffffffff1673ffffffffffffffffffffffffffffffffffffffff168152602001908152602001600020805490501415612a8a57612a89613132565b5b600f60003373ffffffffffffffffffffffffffffffffffffffff1673ffffffffffffffffffffffffffffffffffffffff16815260200190815260200160002084600001519080600181540180825580915050906001820390600052602060002001600090919290919091505550600d84600001519080600181540180825580915050906001820390600052602060002001600090919290919091505550836011600086600001518152602001908152602001600020600082015181600001556020820151816001019080519060200190612b65929190613471565b506040820151816002019080519060200190612b82929190613471565b506060820151816003015560808201518160040160006101000a81548160ff02191690831515021790555060a0820151816005019080519060200190612bc9929190613471565b5060c0820151816006019080519060200190612be6929190613471565b50905050836000015194505050505095945050505050565b6060600f60008373ffffffffffffffffffffffffffffffffffffffff1673ffffffffffffffffffffffffffffffffffffffff168152602001908152602001600020805480602002602001604051908101604052809291908181526020018280548015612c8957602002820191906000526020600020905b815481526020019060010190808311612c75575b50505050509050919050565b600660009054906101000a900473ffffffffffffffffffffffffffffffffffffffff1673ffffffffffffffffffffffffffffffffffffffff163373ffffffffffffffffffffffffffffffffffffffff16141515612cf157600080fd5b612cfd8484848461319a565b50505050565b600d81815481101515612d1257fe5b906000526020600020016000915090505481565b60606010826040518082805190602001908083835b602083101515612d605780518252602082019150602081019050602083039250612d3b565b6001836020036101000a0380198251168184511680821785525050505050509050019150509081526020016040518091039020805480602002602001604051908101604052809291908181526020018280548015612ddd57602002820191906000526020600020905b815481526020019060010190808311612dc9575b50505050509050919050565b600660009054906101000a900473ffffffffffffffffffffffffffffffffffffffff1673ffffffffffffffffffffffffffffffffffffffff163373ffffffffffffffffffffffffffffffffffffffff16141515612e4557600080fd5b612e4e81613335565b50565b6000600260009054906101000a900473ffffffffffffffffffffffffffffffffffffffff16905090565b6000606080600080869350859250835191508183511015612e9b57825191505b600090505b818110156130de578281815181101515612eb657fe5b9060200101517f010000000000000000000000000000000000000000000000000000000000000090047f0100000000000000000000000000000000000000000000000000000000000000027effffffffffffffffffffffffffffffffffffffffffffffffffffffffffffff19168482815181101515612f3157fe5b9060200101517f010000000000000000000000000000000000000000000000000000000000000090047f0100000000000000000000000000000000000000000000000000000000000000027effffffffffffffffffffffffffffffffffffffffffffffffffffffffffffff19161015612fcc577fffffffffffffffffffffffffffffffffffffffffffffffffffffffffffffffff9450613128565b8281815181101515612fda57fe5b9060200101517f010000000000000000000000000000000000000000000000000000000000000090047f0100000000000000000000000000000000000000000000000000000000000000027effffffffffffffffffffffffffffffffffffffffffffffffffffffffffffff1916848281518110151561305557fe5b9060200101517f010000000000000000000000000000000000000000000000000000000000000090047f0100000000000000000000000000000000000000000000000000000000000000027effffffffffffffffffffffffffffffffffffffffffffffffffffffffffffff191611156130d15760019450613128565b8080600101915050612ea0565b825184511015613110577fffffffffffffffffffffffffffffffffffffffffffffffffffffffffffffffff9450613128565b8251845111156131235760019450613128565b600094505b5050505092915050565b600e3390806001815401808255809150509060018203906000526020600020016000909192909190916101000a81548173ffffffffffffffffffffffffffffffffffffffff021916908373ffffffffffffffffffffffffffffffffffffffff16021790555050565b600060056000866000191660001916815260200190815260200160002060009054906101000a900473ffffffffffffffffffffffffffffffffffffffff16905060056000866000191660001916815260200190815260200160002060006101000a81549073ffffffffffffffffffffffffffffffffffffffff021916905584600019167fe1fe3afa0f7f761ff0a8b89086790efd5140d2907ebd5b7ff6bfcb5e075fd4c560405160405180910390a28073ffffffffffffffffffffffffffffffffffffffff16636ee4d553868686866040518563ffffffff167c0100000000000000000000000000000000000000000000000000000000028152600401808560001916600019168152602001848152602001837bffffffffffffffffffffffffffffffffffffffffffffffffffffffff19167bffffffffffffffffffffffffffffffffffffffffffffffffffffffff19168152602001828152602001945050505050600060405180830381600087803b15801561331657600080fd5b505af115801561332a573d6000803e3d6000fd5b505050505050505050565b600073ffffffffffffffffffffffffffffffffffffffff168173ffffffffffffffffffffffffffffffffffffffff161415151561337157600080fd5b8073ffffffffffffffffffffffffffffffffffffffff16600660009054906101000a900473ffffffffffffffffffffffffffffffffffffffff1673ffffffffffffffffffffffffffffffffffffffff167f8be0079c531659141344cd1fd0a4f28419497f9722a3daafe3b4186f6b6457e060405160405180910390a380600660006101000a81548173ffffffffffffffffffffffffffffffffffffffff021916908373ffffffffffffffffffffffffffffffffffffffff16021790555050565b60e0604051908101604052806000815260200160608152602001606081526020016000815260200160001515815260200160608152602001606081525090565b828054600181600116156101000203166002900490600052602060002090601f016020900481019282601f106134b257805160ff19168380011785556134e0565b828001600101855582156134e0579182015b828111156134df5782518255916020019190600101906134c4565b5b5090506134ed91906134f1565b5090565b61351391905b8082111561350f5760008160009055506001016134f7565b5090565b905600a165627a7a72305820719a65f1b0de686ebaca357299e2288cffdf4995caf526edcfa9ad300d1336bc0029",
  "source": "pragma solidity >=0.4.0 <0.7.0;\n\nimport \"@chainlink/contracts/src/v0.4/ChainlinkClient.sol\";\nimport \"@chainlink/contracts/src/v0.4/vendor/Ownable.sol\";\nimport \"openzeppelin-solidity/contracts/token/ERC20/ERC20.sol\";\n\ncontract JagerGitClient is ChainlinkClient, Ownable {\n  uint256 constant private ORACLE_PAYMENT = 1 * LINK;\n\n  /**  \n  * @dev Details of each transfer  \n  * @param contract_ contract address of ER20 token to transfer  \n  * @param to_ receiving account  \n  * @param amount_ number of tokens to transfer to_ account  \n  * @param failed_ if transfer was successful or not  \n  */  \n  struct Transfer {  \n    address contract_;  \n    address to_;  \n    uint amount_;  \n    bool failed_;  \n  }\n\n  /**  \n  * @dev a mapping from transaction ID's to the sender address  \n  * that initiates them. Owners can create several transactions  \n  */  \n  mapping(address => uint[]) public transactionIndexesToSender;\n  /**  \n  * @dev a list of all transfers successful or unsuccessful  \n  */  \n\n  address public owner;  \n  \n  /**  \n  * @dev list of all supported tokens for transfer  \n  * @param string token symbol  \n  * @param address contract address of token  \n  */  \n  mapping(bytes32 => address) public tokens; \n\n  ERC20 public ERC20Interface;\n\n  Transfer[] public transactions;\n\n  /**  \n  * @dev Event to notify if transfer successful or failed  \n  * after account approval verified  \n  */  \n  event TransferSuccessful(address indexed from_, address indexed to_, uint256 amount_);  \n  \n  event TransferFailed(address indexed from_, address indexed to_, uint256 amount_);\n\n  /**  \n  * @dev add address of token to list of supported tokens using  \n  * token symbol as identifier in mapping  \n  */  \n  function addNewToken(bytes32 symbol_, address address_) public onlyOwner returns (bool) {  \n    tokens[symbol_] = address_;  \n    \n    return true;  \n  }  \n    \n  /**  \n  * @dev remove address of token we no more support  \n  */  \n  function removeToken(bytes32 symbol_) public onlyOwner returns (bool) {  \n    require(tokens[symbol_] != 0x0);  \n  \n    delete(tokens[symbol_]);  \n    \n    return true;  \n  }  \n    \n  /**  \n  * @dev method that handles transfer of ERC20 tokens to other address  \n  * it assumes the calling address has approved this contract  \n  * as spender  \n  * @param symbol_ identifier mapping to a token contract address  \n  * @param to_ beneficiary address  \n  * @param amount_ numbers of token to transfer  \n  */  \n  function transferTokens(bytes32 symbol_, address to_, uint256 amount_) public {  \n    require(tokens[symbol_] != 0x0);  \n    require(amount_ > 0);  \n    \n    address contract_ = tokens[symbol_];  \n    address from_ = msg.sender;  \n  \n    ERC20Interface = ERC20(contract_);  \n    \n    uint256 transactionId = transactions.push(  \n    Transfer({  \n    contract_:  contract_,  \n          to_: to_,  \n          amount_: amount_,  \n          failed_: true  \n    })  \n  );  \n    transactionIndexesToSender[from_].push(transactionId - 1);  \n    \n    if(amount_ > ERC20Interface.allowance(from_, address(this))) {  \n    emit TransferFailed(from_, to_, amount_);  \n    revert();  \n  }  \n    ERC20Interface.transferFrom(from_, to_, amount_);  \n    \n    transactions[transactionId - 1].failed_ = false;  \n    \n    emit TransferSuccessful(from_, to_, amount_);  \n  }  \n    \n  /**  \n  * @dev withdraw funds from this contract  \n  * @param beneficiary address to receive ether  \n  */  \n  function withdraw(address beneficiary) public payable onlyOwner {  \n    beneficiary.transfer(address(this).balance);  \n  }\n  \n  function cashReward(bytes32 symbol_, address to_, uint256 amount_) public {\n      require(tokens[symbol_] != 0x0);  \n      require(amount_ > 0);  \n    \n      address contract_ = tokens[symbol_]; \n      \n      ERC20Interface = ERC20(contract_);  \n    \n      uint256 transactionId = transactions.push(  \n      Transfer({  \n      contract_:  contract_,  \n          to_: to_,  \n          amount_: amount_,  \n          failed_: true  \n      })  \n    );  \n    \n    if(amount_ > ERC20Interface.balanceOf(address(this))) {  \n      emit TransferFailed(address(this), to_, amount_);  \n      revert();  \n    } \n      \n      ERC20Interface.transferFrom(address(this), to_, amount_);  \n      \n      transactions[transactionId - 1].failed_ = false;  \n    \n      emit TransferSuccessful(address(this), to_, amount_);  \n  }\n\n  uint256 reward_pool;\n  \n  struct Bounty {\n      uint id;\n      string repo_link;\n      string tag;\n      uint reward_amount;\n      bool active;\n      string title;\n      string description;\n  }\n  \n  struct Meister {\n      address id;\n      uint bounties_fulfilled;\n  }\n  \n  uint[] public bountyIDs;\n  address[] public allMeisters;\n  \n  mapping (address => uint[]) public meister_bounty_ids;\n  mapping (string => uint[]) private repo_bounties;\n  mapping (uint => Bounty) public bounties;\n  \n  event NewBounty(uint _bounty_id, address _owner, uint _reward);\n\n  constructor() public Ownable() {\n    setPublicChainlinkToken();\n    bytes32 b = stringToBytes32(\"DAI\");\n    addNewToken(b, address(0x4dC966317B2c55105FAd4835F651022aCD632120));\n  }\n  \n  function AddNewMeister() private {\n      allMeisters.push(msg.sender);\n  }\n  \n  function CreateBounty(string memory repoLink, \n                        uint reward, \n                        string PR_tag,\n                        string title,\n                        string description) public returns (uint bountyID) {\n      Bounty memory bounty = Bounty({\n          id: bountyIDs.length,\n          repo_link: repoLink,\n          tag: PR_tag,\n          reward_amount: reward,\n          active: true,\n          title: title,\n          description: description\n      }); \n\n      uint len = repo_bounties[repoLink].length;\n\n      if(len != 0) {\n        for(uint i = 0; i < len; i++) {\n          uint id = repo_bounties[repoLink][i];\n\n          require(compare(bounties[id].tag, PR_tag) != 0 || !bounties[id].active);\n        }\n      }\n\n      repo_bounties[repoLink].push(bounty.id);\n\n      if (meister_bounty_ids[msg.sender].length == 0) {\n          AddNewMeister();\n      }\n\n      meister_bounty_ids[msg.sender].push(bounty.id);\n      bountyIDs.push(bounty.id);\n      bounties[bounty.id] = bounty;\n      return bounty.id;\n  }\n  \n  function GetMeisterBounties(address meister) public view returns (uint[] memory bountyIds) {\n      return meister_bounty_ids[meister];\n  }\n\n  function GetRepoBounties(string repoLink) public view returns (uint[] memory bountyIds) {\n      return repo_bounties[repoLink];\n  }\n  \n  function GetBountyInfo(uint bountyId) public view returns (uint id, \n                                                        string memory repoLink, \n                                                        string memory tag, \n                                                        uint reward, \n                                                        bool active,\n                                                        string memory title,\n                                                        string memory description) {\n      Bounty memory bounty = bounties[bountyId];\n      return (bounty.id, \n              bounty.repo_link, \n              bounty.tag, \n              bounty.reward_amount, \n              bounty.active,\n              bounty.title,\n              bounty.description);\n  }\n  \n\n  function getChainlinkToken() public view returns (address) {\n    return chainlinkTokenAddress();\n  }\n\n  function withdrawLink() public onlyOwner {\n    LinkTokenInterface link = LinkTokenInterface(chainlinkTokenAddress());\n    require(link.transfer(msg.sender, link.balanceOf(address(this))), \"Unable to transfer\");\n  }\n\n  function cancelRequest(\n    bytes32 _requestId,\n    uint256 _payment,\n    bytes4 _callbackFunctionId,\n    uint256 _expiration\n  )\n    public\n    onlyOwner\n  {\n    cancelChainlinkRequest(_requestId, _payment, _callbackFunctionId, _expiration);\n  }\n\n  function stringToBytes32(string memory source) private pure returns (bytes32 result) {\n    bytes memory tempEmptyStringTest = bytes(source);\n    if (tempEmptyStringTest.length == 0) {\n      return 0x0;\n    }\n\n    assembly { // solhint-disable-line no-inline-assembly\n      result := mload(add(source, 32))\n    }\n  }\n\n  function compare(string _a, string _b) private pure returns (int) {\n        bytes memory a = bytes(_a);\n        bytes memory b = bytes(_b);\n        uint minLength = a.length;\n        if (b.length < minLength) minLength = b.length;\n        //@todo unroll the loop into increments of 32 and do full 32 byte comparisons\n        for (uint i = 0; i < minLength; i ++)\n            if (a[i] < b[i])\n                return -1;\n            else if (a[i] > b[i])\n                return 1;\n        if (a.length < b.length)\n            return -1;\n        else if (a.length > b.length)\n            return 1;\n        else\n            return 0;\n    }\n\n}\n",
  "sourcePath": "C:/Users/parke/Desktop/programming/mock/contracts/JagerGitClient.sol",
  "compiler": {
    "name": "solc",
    "version": "0.4.24+commit.e67f0147.Emscripten.clang"
  },
  "schemaVersion": "3.2.3",
  "updatedAt": "2020-09-27T02:53:53.975Z",
  "networkType": "ethereum",
  "devdoc": {
    "methods": {
      "addNewToken(bytes32,address)": {
        "details": "add address of token to list of supported tokens using   token symbol as identifier in mapping  "
      },
      "removeToken(bytes32)": {
        "details": "remove address of token we no more support  "
      },
      "renounceOwnership()": {
        "details": "Allows the current owner to relinquish control of the contract."
      },
      "transferOwnership(address)": {
        "details": "Allows the current owner to transfer control of the contract to a newOwner.",
        "params": {
          "_newOwner": "The address to transfer ownership to."
        }
      },
      "transferTokens(bytes32,address,uint256)": {
        "details": "method that handles transfer of ERC20 tokens to other address   it assumes the calling address has approved this contract   as spender  ",
        "params": {
          "amount_": "numbers of token to transfer  ",
          "symbol_": "identifier mapping to a token contract address  ",
          "to_": "beneficiary address  "
        }
      },
      "withdraw(address)": {
        "details": "withdraw funds from this contract  ",
        "params": {
          "beneficiary": "address to receive ether  "
        }
      }
    }
  },
  "userdoc": {
    "methods": {
      "renounceOwnership()": {
        "notice": "Renouncing to ownership will leave the contract without an owner. It will not be possible to call the functions with the `onlyOwner` modifier anymore."
      }
    }
  }
}