{
  "contractName": "JagerGitClient",
  "abi": [
    {
      "constant": true,
      "inputs": [
        {
          "name": "",
          "type": "address"
        },
        {
          "name": "",
          "type": "uint256"
        }
      ],
      "name": "meister_bounty_ids",
      "outputs": [
        {
          "name": "",
          "type": "uint256"
        }
      ],
      "payable": false,
      "stateMutability": "view",
      "type": "function"
    },
    {
      "constant": true,
      "inputs": [],
      "name": "ERC20Interface",
      "outputs": [
        {
          "name": "",
          "type": "address"
        }
      ],
      "payable": false,
      "stateMutability": "view",
      "type": "function"
    },
    {
      "constant": true,
      "inputs": [],
      "name": "addrStr",
      "outputs": [
        {
          "name": "",
          "type": "bytes32"
        }
      ],
      "payable": false,
      "stateMutability": "view",
      "type": "function"
    },
    {
      "constant": true,
      "inputs": [
        {
          "name": "",
          "type": "uint256"
        }
      ],
      "name": "allMeisters",
      "outputs": [
        {
          "name": "",
          "type": "address"
        }
      ],
      "payable": false,
      "stateMutability": "view",
      "type": "function"
    },
    {
      "constant": false,
      "inputs": [],
      "name": "renounceOwnership",
      "outputs": [],
      "payable": false,
      "stateMutability": "nonpayable",
      "type": "function"
    },
    {
      "constant": true,
      "inputs": [],
      "name": "owner",
      "outputs": [
        {
          "name": "",
          "type": "address"
        }
      ],
      "payable": false,
      "stateMutability": "view",
      "type": "function"
    },
    {
      "constant": true,
      "inputs": [
        {
          "name": "",
          "type": "bytes32"
        }
      ],
      "name": "tokens",
      "outputs": [
        {
          "name": "",
          "type": "address"
        }
      ],
      "payable": false,
      "stateMutability": "view",
      "type": "function"
    },
    {
      "constant": true,
      "inputs": [
        {
          "name": "",
          "type": "uint256"
        }
      ],
      "name": "transactions",
      "outputs": [
        {
          "name": "contract_",
          "type": "address"
        },
        {
          "name": "to_",
          "type": "address"
        },
        {
          "name": "amount_",
          "type": "uint256"
        },
        {
          "name": "failed_",
          "type": "bool"
        }
      ],
      "payable": false,
      "stateMutability": "view",
      "type": "function"
    },
    {
      "constant": true,
      "inputs": [
        {
          "name": "",
          "type": "address"
        },
        {
          "name": "",
          "type": "uint256"
        }
      ],
      "name": "transactionIndexesToSender",
      "outputs": [
        {
          "name": "",
          "type": "uint256"
        }
      ],
      "payable": false,
      "stateMutability": "view",
      "type": "function"
    },
    {
      "constant": true,
      "inputs": [
        {
          "name": "",
          "type": "uint256"
        }
      ],
      "name": "bounties",
      "outputs": [
        {
          "name": "id",
          "type": "uint256"
        },
        {
          "name": "repo_link",
          "type": "string"
        },
        {
          "name": "tag",
          "type": "string"
        },
        {
          "name": "reward_amount",
          "type": "uint256"
        },
        {
          "name": "active",
          "type": "bool"
        },
        {
          "name": "title",
          "type": "string"
        },
        {
          "name": "description",
          "type": "string"
        }
      ],
      "payable": false,
      "stateMutability": "view",
      "type": "function"
    },
    {
      "constant": true,
      "inputs": [
        {
          "name": "",
          "type": "uint256"
        }
      ],
      "name": "bountyIDs",
      "outputs": [
        {
          "name": "",
          "type": "uint256"
        }
      ],
      "payable": false,
      "stateMutability": "view",
      "type": "function"
    },
    {
      "constant": false,
      "inputs": [
        {
          "name": "_newOwner",
          "type": "address"
        }
      ],
      "name": "transferOwnership",
      "outputs": [],
      "payable": false,
      "stateMutability": "nonpayable",
      "type": "function"
    },
    {
      "inputs": [],
      "payable": false,
      "stateMutability": "nonpayable",
      "type": "constructor"
    },
    {
      "anonymous": false,
      "inputs": [
        {
          "indexed": true,
          "name": "requestId",
          "type": "bytes32"
        },
        {
          "indexed": true,
          "name": "addrStr",
          "type": "bytes32"
        }
      ],
      "name": "requestBountyCompleteFulfilled",
      "type": "event"
    },
    {
      "anonymous": false,
      "inputs": [
        {
          "indexed": true,
          "name": "from_",
          "type": "address"
        },
        {
          "indexed": true,
          "name": "to_",
          "type": "address"
        },
        {
          "indexed": false,
          "name": "amount_",
          "type": "uint256"
        }
      ],
      "name": "TransferSuccessful",
      "type": "event"
    },
    {
      "anonymous": false,
      "inputs": [
        {
          "indexed": true,
          "name": "from_",
          "type": "address"
        },
        {
          "indexed": true,
          "name": "to_",
          "type": "address"
        },
        {
          "indexed": false,
          "name": "amount_",
          "type": "uint256"
        }
      ],
      "name": "TransferFailed",
      "type": "event"
    },
    {
      "anonymous": false,
      "inputs": [
        {
          "indexed": false,
          "name": "_bounty_id",
          "type": "uint256"
        },
        {
          "indexed": false,
          "name": "_owner",
          "type": "address"
        },
        {
          "indexed": false,
          "name": "_reward",
          "type": "uint256"
        }
      ],
      "name": "NewBounty",
      "type": "event"
    },
    {
      "anonymous": false,
      "inputs": [
        {
          "indexed": true,
          "name": "previousOwner",
          "type": "address"
        }
      ],
      "name": "OwnershipRenounced",
      "type": "event"
    },
    {
      "anonymous": false,
      "inputs": [
        {
          "indexed": true,
          "name": "previousOwner",
          "type": "address"
        },
        {
          "indexed": true,
          "name": "newOwner",
          "type": "address"
        }
      ],
      "name": "OwnershipTransferred",
      "type": "event"
    },
    {
      "anonymous": false,
      "inputs": [
        {
          "indexed": true,
          "name": "id",
          "type": "bytes32"
        }
      ],
      "name": "ChainlinkRequested",
      "type": "event"
    },
    {
      "anonymous": false,
      "inputs": [
        {
          "indexed": true,
          "name": "id",
          "type": "bytes32"
        }
      ],
      "name": "ChainlinkFulfilled",
      "type": "event"
    },
    {
      "anonymous": false,
      "inputs": [
        {
          "indexed": true,
          "name": "id",
          "type": "bytes32"
        }
      ],
      "name": "ChainlinkCancelled",
      "type": "event"
    },
    {
      "constant": false,
      "inputs": [
        {
          "name": "symbol_",
          "type": "bytes32"
        },
        {
          "name": "address_",
          "type": "address"
        }
      ],
      "name": "addNewToken",
      "outputs": [
        {
          "name": "",
          "type": "bool"
        }
      ],
      "payable": false,
      "stateMutability": "nonpayable",
      "type": "function"
    },
    {
      "constant": false,
      "inputs": [
        {
          "name": "symbol_",
          "type": "bytes32"
        }
      ],
      "name": "removeToken",
      "outputs": [
        {
          "name": "",
          "type": "bool"
        }
      ],
      "payable": false,
      "stateMutability": "nonpayable",
      "type": "function"
    },
    {
      "constant": false,
      "inputs": [
        {
          "name": "symbol_",
          "type": "bytes32"
        },
        {
          "name": "to_",
          "type": "address"
        },
        {
          "name": "amount_",
          "type": "uint256"
        }
      ],
      "name": "transferTokens",
      "outputs": [],
      "payable": false,
      "stateMutability": "nonpayable",
      "type": "function"
    },
    {
      "constant": false,
      "inputs": [
        {
          "name": "beneficiary",
          "type": "address"
        }
      ],
      "name": "withdraw",
      "outputs": [],
      "payable": true,
      "stateMutability": "payable",
      "type": "function"
    },
    {
      "constant": false,
      "inputs": [
        {
          "name": "symbol_",
          "type": "bytes32"
        },
        {
          "name": "to_",
          "type": "address"
        },
        {
          "name": "amount_",
          "type": "uint256"
        }
      ],
      "name": "cashReward",
      "outputs": [],
      "payable": false,
      "stateMutability": "nonpayable",
      "type": "function"
    },
    {
      "constant": false,
      "inputs": [
        {
          "name": "repoLink",
          "type": "string"
        },
        {
          "name": "reward",
          "type": "uint256"
        },
        {
          "name": "PR_tag",
          "type": "string"
        },
        {
          "name": "title",
          "type": "string"
        },
        {
          "name": "description",
          "type": "string"
        }
      ],
      "name": "CreateBounty",
      "outputs": [
        {
          "name": "bountyID",
          "type": "uint256"
        }
      ],
      "payable": false,
      "stateMutability": "nonpayable",
      "type": "function"
    },
    {
      "constant": true,
      "inputs": [
        {
          "name": "meister",
          "type": "address"
        }
      ],
      "name": "GetMeisterBounties",
      "outputs": [
        {
          "name": "bountyIds",
          "type": "uint256[]"
        }
      ],
      "payable": false,
      "stateMutability": "view",
      "type": "function"
    },
    {
      "constant": true,
      "inputs": [
        {
          "name": "repoLink",
          "type": "string"
        }
      ],
      "name": "GetRepoBounties",
      "outputs": [
        {
          "name": "bountyIds",
          "type": "uint256[]"
        }
      ],
      "payable": false,
      "stateMutability": "view",
      "type": "function"
    },
    {
      "constant": true,
      "inputs": [
        {
          "name": "bountyId",
          "type": "uint256"
        }
      ],
      "name": "GetBountyInfo",
      "outputs": [
        {
          "name": "id",
          "type": "uint256"
        },
        {
          "name": "repoLink",
          "type": "string"
        },
        {
          "name": "tag",
          "type": "string"
        },
        {
          "name": "reward",
          "type": "uint256"
        },
        {
          "name": "active",
          "type": "bool"
        },
        {
          "name": "title",
          "type": "string"
        },
        {
          "name": "description",
          "type": "string"
        }
      ],
      "payable": false,
      "stateMutability": "view",
      "type": "function"
    },
    {
      "constant": true,
      "inputs": [],
      "name": "getChainlinkToken",
      "outputs": [
        {
          "name": "",
          "type": "address"
        }
      ],
      "payable": false,
      "stateMutability": "view",
      "type": "function"
    },
    {
      "constant": false,
      "inputs": [],
      "name": "withdrawLink",
      "outputs": [],
      "payable": false,
      "stateMutability": "nonpayable",
      "type": "function"
    },
    {
      "constant": false,
      "inputs": [
        {
          "name": "_requestId",
          "type": "bytes32"
        },
        {
          "name": "_payment",
          "type": "uint256"
        },
        {
          "name": "_callbackFunctionId",
          "type": "bytes4"
        },
        {
          "name": "_expiration",
          "type": "uint256"
        }
      ],
      "name": "cancelRequest",
      "outputs": [],
      "payable": false,
      "stateMutability": "nonpayable",
      "type": "function"
    },
    {
      "constant": false,
      "inputs": [
        {
          "name": "repo_link",
          "type": "string"
        },
        {
          "name": "PR_id",
          "type": "string"
        }
      ],
      "name": "requestBountyComplete",
      "outputs": [],
      "payable": false,
      "stateMutability": "nonpayable",
      "type": "function"
    },
    {
      "constant": false,
      "inputs": [
        {
          "name": "_requestId",
          "type": "bytes32"
        },
        {
          "name": "_addrStr",
          "type": "bytes32"
        }
      ],
      "name": "fulfillBountyComplete",
      "outputs": [],
      "payable": false,
      "stateMutability": "nonpayable",
      "type": "function"
    }
  ],
  "bytecode": "0x608060405260016004553480156200001657600080fd5b50600033600660006101000a81548173ffffffffffffffffffffffffffffffffffffffff021916908373ffffffffffffffffffffffffffffffffffffffff160217905550620000736200023a640100000000026401000000009004565b7356dd6586db0d08c6ce7b2f2805af28616e082455600760006101000a81548173ffffffffffffffffffffffffffffffffffffffff021916908373ffffffffffffffffffffffffffffffffffffffff1602179055506040805190810160405280602081526020017f633132386662623031373534343263386261383238303430666464316132356581525060089080519060200190620001159291906200043f565b50620001656040805190810160405280600381526020017f44414900000000000000000000000000000000000000000000000000000000008152506200030b640100000000026401000000009004565b90506200019681734dc966317b2c55105fad4835f651022acd63212062000338640100000000026401000000009004565b506040805190810160405280601d81526020017f68747470733a2f2f6170692e6769746875622e636f6d2f7265706f732f00000081525060099080519060200190620001e49291906200043f565b506040805190810160405280600781526020017f2f70756c6c732f00000000000000000000000000000000000000000000000000815250600a9080519060200190620002329291906200043f565b5050620004ee565b6200030973c89bd4e1632d3a43cb03aaad5262cbe4038bc57173ffffffffffffffffffffffffffffffffffffffff166338cc48316040518163ffffffff167c0100000000000000000000000000000000000000000000000000000000028152600401602060405180830381600087803b158015620002b757600080fd5b505af1158015620002cc573d6000803e3d6000fd5b505050506040513d6020811015620002e357600080fd5b8101908080519060200190929190505050620003fb640100000000026401000000009004565b565b600060608290506000815114156200032a576000600102915062000332565b602083015191505b50919050565b6000600660009054906101000a900473ffffffffffffffffffffffffffffffffffffffff1673ffffffffffffffffffffffffffffffffffffffff163373ffffffffffffffffffffffffffffffffffffffff161415156200039757600080fd5b81600e6000856000191660001916815260200190815260200160002060006101000a81548173ffffffffffffffffffffffffffffffffffffffff021916908373ffffffffffffffffffffffffffffffffffffffff1602179055506001905092915050565b80600260006101000a81548173ffffffffffffffffffffffffffffffffffffffff021916908373ffffffffffffffffffffffffffffffffffffffff16021790555050565b828054600181600116156101000203166002900490600052602060002090601f016020900481019282601f106200048257805160ff1916838001178555620004b3565b82800160010185558215620004b3579182015b82811115620004b257825182559160200191906001019062000495565b5b509050620004c29190620004c6565b5090565b620004eb91905b80821115620004e7576000816000905550600101620004cd565b5090565b90565b61478b80620004fe6000396000f300608060405260043610610154576000357c0100000000000000000000000000000000000000000000000000000000900463ffffffff1680630a4767d014610159578063165d35e1146101ba5780631bbc4b83146102115780631f9988c914610268578063224e7462146102c357806335c157211461030c57806351cff8d91461033f57806364bb3e7314610375578063715018a6146103e2578063840f2bcc146103f95780638830d52b146104a85780638da5cb5b146106ab5780638dc654a214610702578063904194a3146107195780639ace38c21461078a578063a30fd57c1461083c578063b082443b1461087b578063b7d5f9dc146108e4578063c47964371461093f578063dc2f8744146109a0578063e43e8d9914610ba3578063ec2bd98114610cfc578063ec65d0f814610d94578063ecb0fbdc14610e02578063f1c0099a14610e43578063f2fde38b14610f01575b600080fd5b34801561016557600080fd5b506101a4600480360381019080803573ffffffffffffffffffffffffffffffffffffffff16906020019092919080359060200190929190505050610f44565b6040518082815260200191505060405180910390f35b3480156101c657600080fd5b506101cf610f74565b604051808273ffffffffffffffffffffffffffffffffffffffff1673ffffffffffffffffffffffffffffffffffffffff16815260200191505060405180910390f35b34801561021d57600080fd5b50610226610f83565b604051808273ffffffffffffffffffffffffffffffffffffffff1673ffffffffffffffffffffffffffffffffffffffff16815260200191505060405180910390f35b34801561027457600080fd5b506102c16004803603810190808035600019169060200190929190803573ffffffffffffffffffffffffffffffffffffffff16906020019092919080359060200190929190505050610fa9565b005b3480156102cf57600080fd5b506102f260048036038101908080356000191690602001909291905050506115c0565b604051808215151515815260200191505060405180910390f35b34801561031857600080fd5b506103216116c6565b60405180826000191660001916815260200191505060405180910390f35b610373600480360381019080803573ffffffffffffffffffffffffffffffffffffffff1690602001909291905050506116cc565b005b34801561038157600080fd5b506103a060048036038101908080359060200190929190505050611789565b604051808273ffffffffffffffffffffffffffffffffffffffff1673ffffffffffffffffffffffffffffffffffffffff16815260200191505060405180910390f35b3480156103ee57600080fd5b506103f76117c7565b005b34801561040557600080fd5b506104a6600480360381019080803590602001908201803590602001908080601f0160208091040260200160405190810160405280939291908181526020018383808284378201915050505050509192919290803590602001908201803590602001908080601f01602080910402602001604051908101604052809392919081815260200183838082843782019150505050505091929192905050506118cc565b005b3480156104b457600080fd5b506104d360048036038101908080359060200190929190505050611c82565b60405180888152602001806020018060200187815260200186151515158152602001806020018060200185810385528b818151815260200191508051906020019080838360005b8381101561053557808201518184015260208101905061051a565b50505050905090810190601f1680156105625780820380516001836020036101000a031916815260200191505b5085810384528a818151815260200191508051906020019080838360005b8381101561059b578082015181840152602081019050610580565b50505050905090810190601f1680156105c85780820380516001836020036101000a031916815260200191505b50858103835287818151815260200191508051906020019080838360005b838110156106015780820151818401526020810190506105e6565b50505050905090810190601f16801561062e5780820380516001836020036101000a031916815260200191505b50858103825286818151815260200191508051906020019080838360005b8381101561066757808201518184015260208101905061064c565b50505050905090810190601f1680156106945780820380516001836020036101000a031916815260200191505b509b50505050505050505050505060405180910390f35b3480156106b757600080fd5b506106c0611fb6565b604051808273ffffffffffffffffffffffffffffffffffffffff1673ffffffffffffffffffffffffffffffffffffffff16815260200191505060405180910390f35b34801561070e57600080fd5b50610717611fdc565b005b34801561072557600080fd5b50610748600480360381019080803560001916906020019092919050505061226e565b604051808273ffffffffffffffffffffffffffffffffffffffff1673ffffffffffffffffffffffffffffffffffffffff16815260200191505060405180910390f35b34801561079657600080fd5b506107b5600480360381019080803590602001909291905050506122a1565b604051808573ffffffffffffffffffffffffffffffffffffffff1673ffffffffffffffffffffffffffffffffffffffff1681526020018473ffffffffffffffffffffffffffffffffffffffff1673ffffffffffffffffffffffffffffffffffffffff1681526020018381526020018215151515815260200194505050505060405180910390f35b34801561084857600080fd5b506108796004803603810190808035600019169060200190929190803560001916906020019092919050505061232d565b005b34801561088757600080fd5b506108ca6004803603810190808035600019169060200190929190803573ffffffffffffffffffffffffffffffffffffffff1690602001909291905050506124e7565b604051808215151515815260200191505060405180910390f35b3480156108f057600080fd5b5061093d6004803603810190808035600019169060200190929190803573ffffffffffffffffffffffffffffffffffffffff169060200190929190803590602001909291905050506125a9565b005b34801561094b57600080fd5b5061098a600480360381019080803573ffffffffffffffffffffffffffffffffffffffff16906020019092919080359060200190929190505050612b1b565b6040518082815260200191505060405180910390f35b3480156109ac57600080fd5b506109cb60048036038101908080359060200190929190505050612b4b565b60405180888152602001806020018060200187815260200186151515158152602001806020018060200185810385528b818151815260200191508051906020019080838360005b83811015610a2d578082015181840152602081019050610a12565b50505050905090810190601f168015610a5a5780820380516001836020036101000a031916815260200191505b5085810384528a818151815260200191508051906020019080838360005b83811015610a93578082015181840152602081019050610a78565b50505050905090810190601f168015610ac05780820380516001836020036101000a031916815260200191505b50858103835287818151815260200191508051906020019080838360005b83811015610af9578082015181840152602081019050610ade565b50505050905090810190601f168015610b265780820380516001836020036101000a031916815260200191505b50858103825286818151815260200191508051906020019080838360005b83811015610b5f578082015181840152602081019050610b44565b50505050905090810190601f168015610b8c5780820380516001836020036101000a031916815260200191505b509b50505050505050505050505060405180910390f35b348015610baf57600080fd5b50610ce6600480360381019080803590602001908201803590602001908080601f016020809104026020016040519081016040528093929190818152602001838380828437820191505050505050919291929080359060200190929190803590602001908201803590602001908080601f0160208091040260200160405190810160405280939291908181526020018383808284378201915050505050509192919290803590602001908201803590602001908080601f0160208091040260200160405190810160405280939291908181526020018383808284378201915050505050509192919290803590602001908201803590602001908080601f0160208091040260200160405190810160405280939291908181526020018383808284378201915050505050509192919290505050612dfa565b6040518082815260200191505060405180910390f35b348015610d0857600080fd5b50610d3d600480360381019080803573ffffffffffffffffffffffffffffffffffffffff1690602001909291905050506132b6565b6040518080602001828103825283818151815260200191508051906020019060200280838360005b83811015610d80578082015181840152602081019050610d65565b505050509050019250505060405180910390f35b348015610da057600080fd5b50610e0060048036038101908080356000191690602001909291908035906020019092919080357bffffffffffffffffffffffffffffffffffffffffffffffffffffffff191690602001909291908035906020019092919050505061334d565b005b348015610e0e57600080fd5b50610e2d600480360381019080803590602001909291905050506133bb565b6040518082815260200191505060405180910390f35b348015610e4f57600080fd5b50610eaa600480360381019080803590602001908201803590602001908080601f01602080910402602001604051908101604052809392919081815260200183838082843782019150505050505091929192905050506133de565b6040518080602001828103825283818151815260200191508051906020019060200280838360005b83811015610eed578082015181840152602081019050610ed2565b505050509050019250505060405180910390f35b348015610f0d57600080fd5b50610f42600480360381019080803573ffffffffffffffffffffffffffffffffffffffff1690602001909291905050506134a1565b005b601460205281600052604060002081815481101515610f5f57fe5b90600052602060002001600091509150505481565b6000610f7e613509565b905090565b600f60009054906101000a900473ffffffffffffffffffffffffffffffffffffffff1681565b600080600080600e6000886000191660001916815260200190815260200160002060009054906101000a900473ffffffffffffffffffffffffffffffffffffffff1673ffffffffffffffffffffffffffffffffffffffff161415151561100e57600080fd5b60008411151561101d57600080fd5b600e6000876000191660001916815260200190815260200160002060009054906101000a900473ffffffffffffffffffffffffffffffffffffffff16925033915082600f60006101000a81548173ffffffffffffffffffffffffffffffffffffffff021916908373ffffffffffffffffffffffffffffffffffffffff16021790555060106080604051908101604052808573ffffffffffffffffffffffffffffffffffffffff1681526020018773ffffffffffffffffffffffffffffffffffffffff168152602001868152602001600115158152509080600181540180825580915050906001820390600052602060002090600402016000909192909190915060008201518160000160006101000a81548173ffffffffffffffffffffffffffffffffffffffff021916908373ffffffffffffffffffffffffffffffffffffffff16021790555060208201518160010160006101000a81548173ffffffffffffffffffffffffffffffffffffffff021916908373ffffffffffffffffffffffffffffffffffffffff1602179055506040820151816002015560608201518160030160006101000a81548160ff02191690831515021790555050509050600c60008373ffffffffffffffffffffffffffffffffffffffff1673ffffffffffffffffffffffffffffffffffffffff168152602001908152602001600020600182039080600181540180825580915050906001820390600052602060002001600090919290919091505550600f60009054906101000a900473ffffffffffffffffffffffffffffffffffffffff1673ffffffffffffffffffffffffffffffffffffffff1663dd62ed3e83306040518363ffffffff167c0100000000000000000000000000000000000000000000000000000000028152600401808373ffffffffffffffffffffffffffffffffffffffff1673ffffffffffffffffffffffffffffffffffffffff1681526020018273ffffffffffffffffffffffffffffffffffffffff1673ffffffffffffffffffffffffffffffffffffffff16815260200192505050602060405180830381600087803b15801561133657600080fd5b505af115801561134a573d6000803e3d6000fd5b505050506040513d602081101561136057600080fd5b81019080805190602001909291905050508411156113e2578473ffffffffffffffffffffffffffffffffffffffff168273ffffffffffffffffffffffffffffffffffffffff167fbf182be802245e8ed88e4b8d3e4344c0863dd2a70334f089fd07265389306fcf866040518082815260200191505060405180910390a3600080fd5b600f60009054906101000a900473ffffffffffffffffffffffffffffffffffffffff1673ffffffffffffffffffffffffffffffffffffffff166323b872dd8387876040518463ffffffff167c0100000000000000000000000000000000000000000000000000000000028152600401808473ffffffffffffffffffffffffffffffffffffffff1673ffffffffffffffffffffffffffffffffffffffff1681526020018373ffffffffffffffffffffffffffffffffffffffff1673ffffffffffffffffffffffffffffffffffffffff1681526020018281526020019350505050602060405180830381600087803b1580156114db57600080fd5b505af11580156114ef573d6000803e3d6000fd5b505050506040513d602081101561150557600080fd5b810190808051906020019092919050505050600060106001830381548110151561152b57fe5b906000526020600020906004020160030160006101000a81548160ff0219169083151502179055508473ffffffffffffffffffffffffffffffffffffffff168273ffffffffffffffffffffffffffffffffffffffff167fd6d3eb25a413c05d8107fc49deb2789bef7f612582b2482804c0b0423b6638ee866040518082815260200191505060405180910390a3505050505050565b6000600660009054906101000a900473ffffffffffffffffffffffffffffffffffffffff1673ffffffffffffffffffffffffffffffffffffffff163373ffffffffffffffffffffffffffffffffffffffff1614151561161e57600080fd5b6000600e6000846000191660001916815260200190815260200160002060009054906101000a900473ffffffffffffffffffffffffffffffffffffffff1673ffffffffffffffffffffffffffffffffffffffff161415151561167f57600080fd5b600e6000836000191660001916815260200190815260200160002060006101000a81549073ffffffffffffffffffffffffffffffffffffffff021916905560019050919050565b600b5481565b600660009054906101000a900473ffffffffffffffffffffffffffffffffffffffff1673ffffffffffffffffffffffffffffffffffffffff163373ffffffffffffffffffffffffffffffffffffffff1614151561172857600080fd5b8073ffffffffffffffffffffffffffffffffffffffff166108fc3073ffffffffffffffffffffffffffffffffffffffff16319081150290604051600060405180830381858888f19350505050158015611785573d6000803e3d6000fd5b5050565b60138181548110151561179857fe5b906000526020600020016000915054906101000a900473ffffffffffffffffffffffffffffffffffffffff1681565b600660009054906101000a900473ffffffffffffffffffffffffffffffffffffffff1673ffffffffffffffffffffffffffffffffffffffff163373ffffffffffffffffffffffffffffffffffffffff1614151561182357600080fd5b600660009054906101000a900473ffffffffffffffffffffffffffffffffffffffff1673ffffffffffffffffffffffffffffffffffffffff167ff8df31144d9c2f0f6b59d69b8b98abd5459d07f2742c4df920b25aae33c6482060405160405180910390a26000600660006101000a81548173ffffffffffffffffffffffffffffffffffffffff021916908373ffffffffffffffffffffffffffffffffffffffff160217905550565b6118d46145d8565b600660009054906101000a900473ffffffffffffffffffffffffffffffffffffffff1673ffffffffffffffffffffffffffffffffffffffff163373ffffffffffffffffffffffffffffffffffffffff1614151561193057600080fd5b611a006119d660088054600181600116156101000203166002900480601f0160208091040260200160405190810160405280929190818152602001828054600181600116156101000203166002900480156119cc5780601f106119a1576101008083540402835291602001916119cc565b820191906000526020600020905b8154815290600101906020018083116119af57829003601f168201915b5050505050613533565b3063a30fd57c7c01000000000000000000000000000000000000000000000000000000000261355e565b9050611bc56040805190810160405280600381526020017f6765740000000000000000000000000000000000000000000000000000000000815250600985600a866040516020018085805460018160011615610100020316600290048015611a9f5780601f10611a7d576101008083540402835291820191611a9f565b820191906000526020600020905b815481529060010190602001808311611a8b575b505084805190602001908083835b602083101515611ad25780518252602082019150602081019050602083039250611aad565b6001836020036101000a03801982511681845116808217855250505050505090500183805460018160011615610100020316600290048015611b4b5780601f10611b29576101008083540402835291820191611b4b565b820191906000526020600020905b815481529060010190602001808311611b37575b505082805190602001908083835b602083101515611b7e5780518252602082019150602081019050602083039250611b59565b6001836020036101000a0380198251168184511680821785525050505050509050019450505050506040516020818303038152906040528361358f9092919063ffffffff16565b611c446040805190810160405280600481526020017f70617468000000000000000000000000000000000000000000000000000000008152506040805190810160405280600481526020017f626f6479000000000000000000000000000000000000000000000000000000008152508361358f9092919063ffffffff16565b611c7c600760009054906101000a900473ffffffffffffffffffffffffffffffffffffffff1682670de0b6b3a76400006001026135c2565b50505050565b6000606080600080606080611c95614646565b601660008a815260200190815260200160002060e0604051908101604052908160008201548152602001600182018054600181600116156101000203166002900480601f016020809104026020016040519081016040528092919081815260200182805460018160011615610100020316600290048015611d575780601f10611d2c57610100808354040283529160200191611d57565b820191906000526020600020905b815481529060010190602001808311611d3a57829003601f168201915b50505050508152602001600282018054600181600116156101000203166002900480601f016020809104026020016040519081016040528092919081815260200182805460018160011615610100020316600290048015611df95780601f10611dce57610100808354040283529160200191611df9565b820191906000526020600020905b815481529060010190602001808311611ddc57829003601f168201915b50505050508152602001600382015481526020016004820160009054906101000a900460ff16151515158152602001600582018054600181600116156101000203166002900480601f016020809104026020016040519081016040528092919081815260200182805460018160011615610100020316600290048015611ec05780601f10611e9557610100808354040283529160200191611ec0565b820191906000526020600020905b815481529060010190602001808311611ea357829003601f168201915b50505050508152602001600682018054600181600116156101000203166002900480601f016020809104026020016040519081016040528092919081815260200182805460018160011615610100020316600290048015611f625780601f10611f3757610100808354040283529160200191611f62565b820191906000526020600020905b815481529060010190602001808311611f4557829003601f168201915b5050505050815250509050806000015181602001518260400151836060015184608001518560a001518660c00151859550849450819150809050975097509750975097509750975050919395979092949650565b600d60009054906101000a900473ffffffffffffffffffffffffffffffffffffffff1681565b6000600660009054906101000a900473ffffffffffffffffffffffffffffffffffffffff1673ffffffffffffffffffffffffffffffffffffffff163373ffffffffffffffffffffffffffffffffffffffff1614151561203a57600080fd5b612042613509565b90508073ffffffffffffffffffffffffffffffffffffffff1663a9059cbb338373ffffffffffffffffffffffffffffffffffffffff166370a08231306040518263ffffffff167c0100000000000000000000000000000000000000000000000000000000028152600401808273ffffffffffffffffffffffffffffffffffffffff1673ffffffffffffffffffffffffffffffffffffffff168152602001915050602060405180830381600087803b1580156120fc57600080fd5b505af1158015612110573d6000803e3d6000fd5b505050506040513d602081101561212657600080fd5b81019080805190602001909291905050506040518363ffffffff167c0100000000000000000000000000000000000000000000000000000000028152600401808373ffffffffffffffffffffffffffffffffffffffff1673ffffffffffffffffffffffffffffffffffffffff16815260200182815260200192505050602060405180830381600087803b1580156121bc57600080fd5b505af11580156121d0573d6000803e3d6000fd5b505050506040513d60208110156121e657600080fd5b8101908080519060200190929190505050151561226b576040517f08c379a00000000000000000000000000000000000000000000000000000000081526004018080602001828103825260128152602001807f556e61626c6520746f207472616e73666572000000000000000000000000000081525060200191505060405180910390fd5b50565b600e6020528060005260406000206000915054906101000a900473ffffffffffffffffffffffffffffffffffffffff1681565b6010818154811015156122b057fe5b90600052602060002090600402016000915090508060000160009054906101000a900473ffffffffffffffffffffffffffffffffffffffff16908060010160009054906101000a900473ffffffffffffffffffffffffffffffffffffffff16908060020154908060030160009054906101000a900460ff16905084565b8160056000826000191660001916815260200190815260200160002060009054906101000a900473ffffffffffffffffffffffffffffffffffffffff1673ffffffffffffffffffffffffffffffffffffffff163373ffffffffffffffffffffffffffffffffffffffff16141515612432576040517f08c379a00000000000000000000000000000000000000000000000000000000081526004018080602001828103825260288152602001807f536f75726365206d75737420626520746865206f7261636c65206f662074686581526020017f207265717565737400000000000000000000000000000000000000000000000081525060400191505060405180910390fd5b60056000826000191660001916815260200190815260200160002060006101000a81549073ffffffffffffffffffffffffffffffffffffffff021916905580600019167f7cc135e0cebb02c3480ae5d74d377283180a2601f8f644edf7987b009316c63a60405160405180910390a2816000191683600019167faa88be1f43b87b276eb5289dcd063e898477df994d870fabaf57acca7700c15d60405160405180910390a381600b8160001916905550505050565b6000600660009054906101000a900473ffffffffffffffffffffffffffffffffffffffff1673ffffffffffffffffffffffffffffffffffffffff163373ffffffffffffffffffffffffffffffffffffffff1614151561254557600080fd5b81600e6000856000191660001916815260200190815260200160002060006101000a81548173ffffffffffffffffffffffffffffffffffffffff021916908373ffffffffffffffffffffffffffffffffffffffff1602179055506001905092915050565b6000806000600e6000876000191660001916815260200190815260200160002060009054906101000a900473ffffffffffffffffffffffffffffffffffffffff1673ffffffffffffffffffffffffffffffffffffffff161415151561260d57600080fd5b60008311151561261c57600080fd5b600e6000866000191660001916815260200190815260200160002060009054906101000a900473ffffffffffffffffffffffffffffffffffffffff16915081600f60006101000a81548173ffffffffffffffffffffffffffffffffffffffff021916908373ffffffffffffffffffffffffffffffffffffffff16021790555060106080604051908101604052808473ffffffffffffffffffffffffffffffffffffffff1681526020018673ffffffffffffffffffffffffffffffffffffffff168152602001858152602001600115158152509080600181540180825580915050906001820390600052602060002090600402016000909192909190915060008201518160000160006101000a81548173ffffffffffffffffffffffffffffffffffffffff021916908373ffffffffffffffffffffffffffffffffffffffff16021790555060208201518160010160006101000a81548173ffffffffffffffffffffffffffffffffffffffff021916908373ffffffffffffffffffffffffffffffffffffffff1602179055506040820151816002015560608201518160030160006101000a81548160ff02191690831515021790555050509050600f60009054906101000a900473ffffffffffffffffffffffffffffffffffffffff1673ffffffffffffffffffffffffffffffffffffffff166370a08231306040518263ffffffff167c0100000000000000000000000000000000000000000000000000000000028152600401808273ffffffffffffffffffffffffffffffffffffffff1673ffffffffffffffffffffffffffffffffffffffff168152602001915050602060405180830381600087803b15801561289257600080fd5b505af11580156128a6573d6000803e3d6000fd5b505050506040513d60208110156128bc57600080fd5b810190808051906020019092919050505083111561293e578373ffffffffffffffffffffffffffffffffffffffff163073ffffffffffffffffffffffffffffffffffffffff167fbf182be802245e8ed88e4b8d3e4344c0863dd2a70334f089fd07265389306fcf856040518082815260200191505060405180910390a3600080fd5b600f60009054906101000a900473ffffffffffffffffffffffffffffffffffffffff1673ffffffffffffffffffffffffffffffffffffffff166323b872dd3086866040518463ffffffff167c0100000000000000000000000000000000000000000000000000000000028152600401808473ffffffffffffffffffffffffffffffffffffffff1673ffffffffffffffffffffffffffffffffffffffff1681526020018373ffffffffffffffffffffffffffffffffffffffff1673ffffffffffffffffffffffffffffffffffffffff1681526020018281526020019350505050602060405180830381600087803b158015612a3757600080fd5b505af1158015612a4b573d6000803e3d6000fd5b505050506040513d6020811015612a6157600080fd5b8101908080519060200190929190505050506000601060018303815481101515612a8757fe5b906000526020600020906004020160030160006101000a81548160ff0219169083151502179055508373ffffffffffffffffffffffffffffffffffffffff163073ffffffffffffffffffffffffffffffffffffffff167fd6d3eb25a413c05d8107fc49deb2789bef7f612582b2482804c0b0423b6638ee856040518082815260200191505060405180910390a35050505050565b600c60205281600052604060002081815481101515612b3657fe5b90600052602060002001600091509150505481565b6016602052806000526040600020600091509050806000015490806001018054600181600116156101000203166002900480601f016020809104026020016040519081016040528092919081815260200182805460018160011615610100020316600290048015612bfd5780601f10612bd257610100808354040283529160200191612bfd565b820191906000526020600020905b815481529060010190602001808311612be057829003601f168201915b505050505090806002018054600181600116156101000203166002900480601f016020809104026020016040519081016040528092919081815260200182805460018160011615610100020316600290048015612c9b5780601f10612c7057610100808354040283529160200191612c9b565b820191906000526020600020905b815481529060010190602001808311612c7e57829003601f168201915b5050505050908060030154908060040160009054906101000a900460ff1690806005018054600181600116156101000203166002900480601f016020809104026020016040519081016040528092919081815260200182805460018160011615610100020316600290048015612d525780601f10612d2757610100808354040283529160200191612d52565b820191906000526020600020905b815481529060010190602001808311612d3557829003601f168201915b505050505090806006018054600181600116156101000203166002900480601f016020809104026020016040519081016040528092919081815260200182805460018160011615610100020316600290048015612df05780601f10612dc557610100808354040283529160200191612df0565b820191906000526020600020905b815481529060010190602001808311612dd357829003601f168201915b5050505050905087565b6000612e04614646565b600080600060e06040519081016040528060128054905081526020018b81526020018981526020018a815260200160011515815260200188815260200187815250935060158a6040518082805190602001908083835b602083101515612e7f5780518252602082019150602081019050602083039250612e5a565b6001836020036101000a038019825116818451168082178552505050505050905001915050908152602001604051809103902080549050925060008314151561305557600091505b828210156130545760158a6040518082805190602001908083835b602083101515612f075780518252602082019150602081019050602083039250612ee2565b6001836020036101000a038019825116818451168082178552505050505050905001915050908152602001604051809103902082815481101515612f4757fe5b90600052602060002001549050600061300e601660008481526020019081526020016000206002018054600181600116156101000203166002900480601f0160208091040260200160405190810160405280929190818152602001828054600181600116156101000203166002900480156130035780601f10612fd857610100808354040283529160200191613003565b820191906000526020600020905b815481529060010190602001808311612fe657829003601f168201915b50505050508a61394e565b14158061303c57506016600082815260200190815260200160002060040160009054906101000a900460ff16155b151561304757600080fd5b8180600101925050612ec7565b5b60158a6040518082805190602001908083835b60208310151561308d5780518252602082019150602081019050602083039250613068565b6001836020036101000a0380198251168184511680821785525050505050509050019150509081526020016040518091039020846000015190806001815401808255809150509060018203906000526020600020016000909192909190915055506000601460003373ffffffffffffffffffffffffffffffffffffffff1673ffffffffffffffffffffffffffffffffffffffff16815260200190815260200160002080549050141561314257613141613c05565b5b601460003373ffffffffffffffffffffffffffffffffffffffff1673ffffffffffffffffffffffffffffffffffffffff1681526020019081526020016000208460000151908060018154018082558091505090600182039060005260206000200160009091929091909150555060128460000151908060018154018082558091505090600182039060005260206000200160009091929091909150555083601660008660000151815260200190815260200160002060008201518160000155602082015181600101908051906020019061321d929190614686565b50604082015181600201908051906020019061323a929190614686565b506060820151816003015560808201518160040160006101000a81548160ff02191690831515021790555060a0820151816005019080519060200190613281929190614686565b5060c082015181600601908051906020019061329e929190614686565b50905050836000015194505050505095945050505050565b6060601460008373ffffffffffffffffffffffffffffffffffffffff1673ffffffffffffffffffffffffffffffffffffffff16815260200190815260200160002080548060200260200160405190810160405280929190818152602001828054801561334157602002820191906000526020600020905b81548152602001906001019080831161332d575b50505050509050919050565b600660009054906101000a900473ffffffffffffffffffffffffffffffffffffffff1673ffffffffffffffffffffffffffffffffffffffff163373ffffffffffffffffffffffffffffffffffffffff161415156133a957600080fd5b6133b584848484613c6d565b50505050565b6012818154811015156133ca57fe5b906000526020600020016000915090505481565b60606015826040518082805190602001908083835b60208310151561341857805182526020820191506020810190506020830392506133f3565b6001836020036101000a038019825116818451168082178552505050505050905001915050908152602001604051809103902080548060200260200160405190810160405280929190818152602001828054801561349557602002820191906000526020600020905b815481526020019060010190808311613481575b50505050509050919050565b600660009054906101000a900473ffffffffffffffffffffffffffffffffffffffff1673ffffffffffffffffffffffffffffffffffffffff163373ffffffffffffffffffffffffffffffffffffffff161415156134fd57600080fd5b61350681613e08565b50565b6000600260009054906101000a900473ffffffffffffffffffffffffffffffffffffffff16905090565b600060608290506000815114156135505760006001029150613558565b602083015191505b50919050565b6135666145d8565b61356e6145d8565b61358585858584613f04909392919063ffffffff16565b9150509392505050565b6135a6828460800151613fbe90919063ffffffff16565b6135bd818460800151613fbe90919063ffffffff16565b505050565b600030600454604051602001808373ffffffffffffffffffffffffffffffffffffffff1673ffffffffffffffffffffffffffffffffffffffff166c01000000000000000000000000028152601401828152602001925050506040516020818303038152906040526040518082805190602001908083835b60208310151561365e5780518252602082019150602081019050602083039250613639565b6001836020036101000a038019825116818451168082178552505050505050905001915050604051809103902090506004548360600181815250508360056000836000191660001916815260200190815260200160002060006101000a81548173ffffffffffffffffffffffffffffffffffffffff021916908373ffffffffffffffffffffffffffffffffffffffff16021790555080600019167fb5e6e01e79f91267dc17b4e6314d5d4d03593d2ceee0fbb452b750bd70ea5af960405160405180910390a2600260009054906101000a900473ffffffffffffffffffffffffffffffffffffffff1673ffffffffffffffffffffffffffffffffffffffff16634000aea0858461376d87613fe3565b6040518463ffffffff167c0100000000000000000000000000000000000000000000000000000000028152600401808473ffffffffffffffffffffffffffffffffffffffff1673ffffffffffffffffffffffffffffffffffffffff16815260200183815260200180602001828103825283818151815260200191508051906020019080838360005b838110156138105780820151818401526020810190506137f5565b50505050905090810190601f16801561383d5780820380516001836020036101000a031916815260200191505b50945050505050602060405180830381600087803b15801561385e57600080fd5b505af1158015613872573d6000803e3d6000fd5b505050506040513d602081101561388857600080fd5b81019080805190602001909291905050501515613933576040517f08c379a00000000000000000000000000000000000000000000000000000000081526004018080602001828103825260238152602001807f756e61626c6520746f207472616e73666572416e6443616c6c20746f206f726181526020017f636c65000000000000000000000000000000000000000000000000000000000081525060400191505060405180910390fd5b60016004600082825401925050819055508090509392505050565b600060608060008086935085925083519150818351101561396e57825191505b600090505b81811015613bb157828181518110151561398957fe5b9060200101517f010000000000000000000000000000000000000000000000000000000000000090047f0100000000000000000000000000000000000000000000000000000000000000027effffffffffffffffffffffffffffffffffffffffffffffffffffffffffffff19168482815181101515613a0457fe5b9060200101517f010000000000000000000000000000000000000000000000000000000000000090047f0100000000000000000000000000000000000000000000000000000000000000027effffffffffffffffffffffffffffffffffffffffffffffffffffffffffffff19161015613a9f577fffffffffffffffffffffffffffffffffffffffffffffffffffffffffffffffff9450613bfb565b8281815181101515613aad57fe5b9060200101517f010000000000000000000000000000000000000000000000000000000000000090047f0100000000000000000000000000000000000000000000000000000000000000027effffffffffffffffffffffffffffffffffffffffffffffffffffffffffffff19168482815181101515613b2857fe5b9060200101517f010000000000000000000000000000000000000000000000000000000000000090047f0100000000000000000000000000000000000000000000000000000000000000027effffffffffffffffffffffffffffffffffffffffffffffffffffffffffffff19161115613ba45760019450613bfb565b8080600101915050613973565b825184511015613be3577fffffffffffffffffffffffffffffffffffffffffffffffffffffffffffffffff9450613bfb565b825184511115613bf65760019450613bfb565b600094505b5050505092915050565b60133390806001815401808255809150509060018203906000526020600020016000909192909190916101000a81548173ffffffffffffffffffffffffffffffffffffffff021916908373ffffffffffffffffffffffffffffffffffffffff16021790555050565b600060056000866000191660001916815260200190815260200160002060009054906101000a900473ffffffffffffffffffffffffffffffffffffffff16905060056000866000191660001916815260200190815260200160002060006101000a81549073ffffffffffffffffffffffffffffffffffffffff021916905584600019167fe1fe3afa0f7f761ff0a8b89086790efd5140d2907ebd5b7ff6bfcb5e075fd4c560405160405180910390a28073ffffffffffffffffffffffffffffffffffffffff16636ee4d553868686866040518563ffffffff167c0100000000000000000000000000000000000000000000000000000000028152600401808560001916600019168152602001848152602001837bffffffffffffffffffffffffffffffffffffffffffffffffffffffff19167bffffffffffffffffffffffffffffffffffffffffffffffffffffffff19168152602001828152602001945050505050600060405180830381600087803b158015613de957600080fd5b505af1158015613dfd573d6000803e3d6000fd5b505050505050505050565b600073ffffffffffffffffffffffffffffffffffffffff168173ffffffffffffffffffffffffffffffffffffffff1614151515613e4457600080fd5b8073ffffffffffffffffffffffffffffffffffffffff16600660009054906101000a900473ffffffffffffffffffffffffffffffffffffffff1673ffffffffffffffffffffffffffffffffffffffff167f8be0079c531659141344cd1fd0a4f28419497f9722a3daafe3b4186f6b6457e060405160405180910390a380600660006101000a81548173ffffffffffffffffffffffffffffffffffffffff021916908373ffffffffffffffffffffffffffffffffffffffff16021790555050565b613f0c6145d8565b613f1c856080015161010061420e565b50838560000190600019169081600019168152505082856020019073ffffffffffffffffffffffffffffffffffffffff16908173ffffffffffffffffffffffffffffffffffffffff16815250508185604001907bffffffffffffffffffffffffffffffffffffffffffffffffffffffff191690817bffffffffffffffffffffffffffffffffffffffffffffffffffffffff191681525050849050949350505050565b613fcb8260038351614268565b613fde81836143c690919063ffffffff16565b505050565b6060600360009054906101000a900473ffffffffffffffffffffffffffffffffffffffff1673ffffffffffffffffffffffffffffffffffffffff16634042994690507c01000000000000000000000000000000000000000000000000000000000260008084600001518560200151866040015187606001516001896080015160000151604051602401808973ffffffffffffffffffffffffffffffffffffffff1673ffffffffffffffffffffffffffffffffffffffff16815260200188815260200187600019166000191681526020018673ffffffffffffffffffffffffffffffffffffffff1673ffffffffffffffffffffffffffffffffffffffff168152602001857bffffffffffffffffffffffffffffffffffffffffffffffffffffffff19167bffffffffffffffffffffffffffffffffffffffffffffffffffffffff1916815260200184815260200183815260200180602001828103825283818151815260200191508051906020019080838360005b83811015614171578082015181840152602081019050614156565b50505050905090810190601f16801561419e5780820380516001836020036101000a031916815260200191505b509950505050505050505050604051602081830303815290604052907bffffffffffffffffffffffffffffffffffffffffffffffffffffffff19166020820180517bffffffffffffffffffffffffffffffffffffffffffffffffffffffff83818316178352505050509050919050565b614216614706565b600060208381151561422457fe5b061415156142415760208281151561423857fe5b06602003820191505b81836020018181525050604051808452600081528281016020016040525082905092915050565b60178111151561429a576142948160058460ff169060020a0260ff1617846143e890919063ffffffff16565b506143c1565b60ff811115156142e1576142c4601860058460ff169060020a0217846143e890919063ffffffff16565b506142db816001856144089092919063ffffffff16565b506143c0565b61ffff811115156143295761430c601960058460ff169060020a0217846143e890919063ffffffff16565b50614323816002856144089092919063ffffffff16565b506143bf565b63ffffffff8111151561437357614356601a60058460ff169060020a0217846143e890919063ffffffff16565b5061436d816004856144089092919063ffffffff16565b506143be565b67ffffffffffffffff811115156143bd576143a4601b60058460ff169060020a0217846143e890919063ffffffff16565b506143bb816008856144089092919063ffffffff16565b505b5b5b5b5b505050565b6143ce614706565b6143e08384600001515184855161442a565b905092915050565b6143f0614706565b61440083846000015151846144e7565b905092915050565b614410614706565b614421848560000151518585614537565b90509392505050565b614432614706565b60008060008551851115151561444757600080fd5b876020015185880111156144725761447188600261446b8b602001518b8a01614598565b026145b4565b5b87518051886020830101945080898801111561448e5788870182525b60208801935050505b6020851015156144bc5781518352602083019250602082019150602085039450614497565b6001856020036101000a03905080198251168184511681811785525050879350505050949350505050565b6144ef614706565b83602001518310151561450e5761450d8460028660200151026145b4565b5b835180516020858301018481538186141561452a576001820183525b5050508390509392505050565b61453f614706565b60008560200151858401111561455f5761455e866002878601026145b4565b5b6001836101000a039050855183868201018583198251161781528151858801111561458a5784870182525b505085915050949350505050565b6000818311156145aa578290506145ae565b8190505b92915050565b6060826000015190506145c7838361420e565b506145d283826143c6565b50505050565b60c06040519081016040528060008019168152602001600073ffffffffffffffffffffffffffffffffffffffff16815260200160007bffffffffffffffffffffffffffffffffffffffffffffffffffffffff1916815260200160008152602001614640614720565b81525090565b60e0604051908101604052806000815260200160608152602001606081526020016000815260200160001515815260200160608152602001606081525090565b828054600181600116156101000203166002900490600052602060002090601f016020900481019282601f106146c757805160ff19168380011785556146f5565b828001600101855582156146f5579182015b828111156146f45782518255916020019190600101906146d9565b5b509050614702919061473a565b5090565b604080519081016040528060608152602001600081525090565b604080519081016040528060608152602001600081525090565b61475c91905b80821115614758576000816000905550600101614740565b5090565b905600a165627a7a723058201652fc213e9dfaedccecd9a804efe6598647263edd10a05f50c39ca8ec5e019d0029",
  "source": "pragma solidity >=0.4.0 <0.7.0;\n\nimport \"@chainlink/contracts/src/v0.4/ChainlinkClient.sol\";\nimport \"@chainlink/contracts/src/v0.4/vendor/Ownable.sol\";\nimport \"openzeppelin-solidity/contracts/token/ERC20/ERC20.sol\";\n\ncontract JagerGitClient is ChainlinkClient, Ownable {\n  uint256 constant private ORACLE_PAYMENT = 1 * LINK;\n  address _oracle;\n  string _jobId;\n  string url1;\n  string url2;\n  \n  bytes32 public addrStr;\n\n  /**  \n  * @dev Details of each transfer  \n  * @param contract_ contract address of ER20 token to transfer  \n  * @param to_ receiving account  \n  * @param amount_ number of tokens to transfer to_ account  \n  * @param failed_ if transfer was successful or not  \n  */  \n  struct Transfer {  \n    address contract_;  \n    address to_;  \n    uint amount_;  \n    bool failed_;  \n  }\n  \n  event requestBountyCompleteFulfilled(\n    bytes32 indexed requestId,\n    bytes32 indexed addrStr\n  );\n\n  /**  \n  * @dev a mapping from transaction ID's to the sender address  \n  * that initiates them. Owners can create several transactions  \n  */  \n  mapping(address => uint[]) public transactionIndexesToSender;\n  /**  \n  * @dev a list of all transfers successful or unsuccessful  \n  */  \n\n  address public owner;  \n  \n  /**  \n  * @dev list of all supported tokens for transfer  \n  * @param string token symbol  \n  * @param address contract address of token  \n  */  \n  mapping(bytes32 => address) public tokens; \n\n  ERC20 public ERC20Interface;\n\n  Transfer[] public transactions;\n\n  /**  \n  * @dev Event to notify if transfer successful or failed  \n  * after account approval verified  \n  */  \n  event TransferSuccessful(address indexed from_, address indexed to_, uint256 amount_);  \n  \n  event TransferFailed(address indexed from_, address indexed to_, uint256 amount_);\n\n  /**  \n  * @dev add address of token to list of supported tokens using  \n  * token symbol as identifier in mapping  \n  */  \n  function addNewToken(bytes32 symbol_, address address_) public onlyOwner returns (bool) {  \n    tokens[symbol_] = address_;  \n    \n    return true;  \n  }  \n    \n  /**  \n  * @dev remove address of token we no more support  \n  */  \n  function removeToken(bytes32 symbol_) public onlyOwner returns (bool) {  \n    require(tokens[symbol_] != 0x0);  \n  \n    delete(tokens[symbol_]);  \n    \n    return true;  \n  }  \n    \n  /**  \n  * @dev method that handles transfer of ERC20 tokens to other address  \n  * it assumes the calling address has approved this contract  \n  * as spender  \n  * @param symbol_ identifier mapping to a token contract address  \n  * @param to_ beneficiary address  \n  * @param amount_ numbers of token to transfer  \n  */  \n  function transferTokens(bytes32 symbol_, address to_, uint256 amount_) public {  \n    require(tokens[symbol_] != 0x0);  \n    require(amount_ > 0);  \n    \n    address contract_ = tokens[symbol_];  \n    address from_ = msg.sender;  \n  \n    ERC20Interface = ERC20(contract_);  \n    \n    uint256 transactionId = transactions.push(  \n    Transfer({  \n    contract_:  contract_,  \n          to_: to_,  \n          amount_: amount_,  \n          failed_: true  \n    })  \n  );  \n    transactionIndexesToSender[from_].push(transactionId - 1);  \n    \n    if(amount_ > ERC20Interface.allowance(from_, address(this))) {  \n    emit TransferFailed(from_, to_, amount_);  \n    revert();  \n  }  \n    ERC20Interface.transferFrom(from_, to_, amount_);  \n    \n    transactions[transactionId - 1].failed_ = false;  \n    \n    emit TransferSuccessful(from_, to_, amount_);  \n  }  \n    \n  /**  \n  * @dev withdraw funds from this contract  \n  * @param beneficiary address to receive ether  \n  */  \n  function withdraw(address beneficiary) public payable onlyOwner {  \n    beneficiary.transfer(address(this).balance);  \n  }\n  \n  function cashReward(bytes32 symbol_, address to_, uint256 amount_) public {\n      require(tokens[symbol_] != 0x0);  \n      require(amount_ > 0);  \n    \n      address contract_ = tokens[symbol_]; \n      \n      ERC20Interface = ERC20(contract_);  \n    \n      uint256 transactionId = transactions.push(  \n      Transfer({  \n      contract_:  contract_,  \n          to_: to_,  \n          amount_: amount_,  \n          failed_: true  \n      })  \n    );  \n    \n    if(amount_ > ERC20Interface.balanceOf(address(this))) {  \n      emit TransferFailed(address(this), to_, amount_);  \n      revert();  \n    } \n      \n      ERC20Interface.transferFrom(address(this), to_, amount_);  \n      \n      transactions[transactionId - 1].failed_ = false;  \n    \n      emit TransferSuccessful(address(this), to_, amount_);  \n  }\n\n  uint256 reward_pool;\n  \n  struct Bounty {\n      uint id;\n      string repo_link;\n      string tag;\n      uint reward_amount;\n      bool active;\n      string title;\n      string description;\n  }\n  \n  struct Meister {\n      address id;\n      uint bounties_fulfilled;\n  }\n  \n  uint[] public bountyIDs;\n  address[] public allMeisters;\n  \n  mapping (address => uint[]) public meister_bounty_ids;\n  mapping (string => uint[]) private repo_bounties;\n  mapping (uint => Bounty) public bounties;\n  \n  event NewBounty(uint _bounty_id, address _owner, uint _reward);\n\n  constructor() public Ownable() {\n    setPublicChainlinkToken();\n    _oracle = address(0x56dd6586DB0D08c6Ce7B2f2805af28616E082455);\n    _jobId = \"c128fbb0175442c8ba828040fdd1a25e\";\n    bytes32 b = stringToBytes32(\"DAI\");\n    addNewToken(b, address(0x4dC966317B2c55105FAd4835F651022aCD632120));\n    url1 = \"https://api.github.com/repos/\";\n    url2 = \"/pulls/\";\n  }\n  \n  function AddNewMeister() private {\n      allMeisters.push(msg.sender);\n  }\n  \n  function CreateBounty(string memory repoLink, \n                        uint reward, \n                        string PR_tag,\n                        string title,\n                        string description) public returns (uint bountyID) {\n      Bounty memory bounty = Bounty({\n          id: bountyIDs.length,\n          repo_link: repoLink,\n          tag: PR_tag,\n          reward_amount: reward,\n          active: true,\n          title: title,\n          description: description\n      }); \n\n      uint len = repo_bounties[repoLink].length;\n\n      if(len != 0) {\n        for(uint i = 0; i < len; i++) {\n          uint id = repo_bounties[repoLink][i];\n\n          require(compare(bounties[id].tag, PR_tag) != 0 || !bounties[id].active);\n        }\n      }\n\n      repo_bounties[repoLink].push(bounty.id);\n\n      if (meister_bounty_ids[msg.sender].length == 0) {\n          AddNewMeister();\n      }\n\n      meister_bounty_ids[msg.sender].push(bounty.id);\n      bountyIDs.push(bounty.id);\n      bounties[bounty.id] = bounty;\n      return bounty.id;\n  }\n  \n  function GetMeisterBounties(address meister) public view returns (uint[] memory bountyIds) {\n      return meister_bounty_ids[meister];\n  }\n\n  function GetRepoBounties(string repoLink) public view returns (uint[] memory bountyIds) {\n      return repo_bounties[repoLink];\n  }\n  \n  function GetBountyInfo(uint bountyId) public view returns (uint id, \n                                                        string memory repoLink, \n                                                        string memory tag, \n                                                        uint reward, \n                                                        bool active,\n                                                        string memory title,\n                                                        string memory description) {\n      Bounty memory bounty = bounties[bountyId];\n      return (bounty.id, \n              bounty.repo_link, \n              bounty.tag, \n              bounty.reward_amount, \n              bounty.active,\n              bounty.title,\n              bounty.description);\n  }\n  \n\n  function getChainlinkToken() public view returns (address) {\n    return chainlinkTokenAddress();\n  }\n\n  function withdrawLink() public onlyOwner {\n    LinkTokenInterface link = LinkTokenInterface(chainlinkTokenAddress());\n    require(link.transfer(msg.sender, link.balanceOf(address(this))), \"Unable to transfer\");\n  }\n\n  function cancelRequest(\n    bytes32 _requestId,\n    uint256 _payment,\n    bytes4 _callbackFunctionId,\n    uint256 _expiration\n  )\n    public\n    onlyOwner\n  {\n    cancelChainlinkRequest(_requestId, _payment, _callbackFunctionId, _expiration);\n  }\n\n  function stringToBytes32(string memory source) private pure returns (bytes32 result) {\n    bytes memory tempEmptyStringTest = bytes(source);\n    if (tempEmptyStringTest.length == 0) {\n      return 0x0;\n    }\n\n    assembly { // solhint-disable-line no-inline-assembly\n      result := mload(add(source, 32))\n    }\n  }\n\n  function compare(string _a, string _b) private pure returns (int) {\n        bytes memory a = bytes(_a);\n        bytes memory b = bytes(_b);\n        uint minLength = a.length;\n        if (b.length < minLength) minLength = b.length;\n        //@todo unroll the loop into increments of 32 and do full 32 byte comparisons\n        for (uint i = 0; i < minLength; i ++)\n            if (a[i] < b[i])\n                return -1;\n            else if (a[i] > b[i])\n                return 1;\n        if (a.length < b.length)\n            return -1;\n        else if (a.length > b.length)\n            return 1;\n        else\n            return 0;\n    }\n    \n    function requestBountyComplete(string repo_link, string PR_id)\n    public\n    onlyOwner\n    {\n        Chainlink.Request memory req = buildChainlinkRequest(stringToBytes32(_jobId), this, this.fulfillBountyComplete.selector);\n        req.add(\"get\", string(abi.encodePacked(url1, repo_link, url2, PR_id)));\n        req.add(\"path\", \"body\");\n        sendChainlinkRequestTo(_oracle, req, ORACLE_PAYMENT);\n    }\n  \n    function fulfillBountyComplete(bytes32 _requestId, bytes32 _addrStr)\n    public\n    recordChainlinkFulfillment(_requestId)\n    {\n        emit requestBountyCompleteFulfilled(_requestId, _addrStr);\n        addrStr = _addrStr;\n    }\n\n}\n",
  "sourcePath": "C:/Users/parke/Desktop/programming/jagerhub-contracts/contracts/JagerGitClient.sol",
  "compiler": {
    "name": "solc",
    "version": "0.4.24+commit.e67f0147.Emscripten.clang"
  },
  "schemaVersion": "3.2.3",
  "updatedAt": "2020-09-27T20:08:35.356Z",
  "networkType": "ethereum",
  "devdoc": {
    "methods": {
      "addNewToken(bytes32,address)": {
        "details": "add address of token to list of supported tokens using   token symbol as identifier in mapping  "
      },
      "removeToken(bytes32)": {
        "details": "remove address of token we no more support  "
      },
      "renounceOwnership()": {
        "details": "Allows the current owner to relinquish control of the contract."
      },
      "transferOwnership(address)": {
        "details": "Allows the current owner to transfer control of the contract to a newOwner.",
        "params": {
          "_newOwner": "The address to transfer ownership to."
        }
      },
      "transferTokens(bytes32,address,uint256)": {
        "details": "method that handles transfer of ERC20 tokens to other address   it assumes the calling address has approved this contract   as spender  ",
        "params": {
          "amount_": "numbers of token to transfer  ",
          "symbol_": "identifier mapping to a token contract address  ",
          "to_": "beneficiary address  "
        }
      },
      "withdraw(address)": {
        "details": "withdraw funds from this contract  ",
        "params": {
          "beneficiary": "address to receive ether  "
        }
      }
    }
  },
  "userdoc": {
    "methods": {
      "renounceOwnership()": {
        "notice": "Renouncing to ownership will leave the contract without an owner. It will not be possible to call the functions with the `onlyOwner` modifier anymore."
      }
    }
  }
}